{
  "_format": "hh-sol-artifact-1",
  "contractName": "TheEpics",
  "sourceName": "contracts/TheEpics.sol",
  "abi": [
    {
      "inputs": [],
      "stateMutability": "nonpayable",
      "type": "constructor"
    },
    {
      "anonymous": false,
      "inputs": [
        {
          "indexed": true,
          "internalType": "address",
          "name": "owner",
          "type": "address"
        },
        {
          "indexed": true,
          "internalType": "address",
          "name": "approved",
          "type": "address"
        },
        {
          "indexed": true,
          "internalType": "uint256",
          "name": "tokenId",
          "type": "uint256"
        }
      ],
      "name": "Approval",
      "type": "event"
    },
    {
      "anonymous": false,
      "inputs": [
        {
          "indexed": true,
          "internalType": "address",
          "name": "owner",
          "type": "address"
        },
        {
          "indexed": true,
          "internalType": "address",
          "name": "operator",
          "type": "address"
        },
        {
          "indexed": false,
          "internalType": "bool",
          "name": "approved",
          "type": "bool"
        }
      ],
      "name": "ApprovalForAll",
      "type": "event"
    },
    {
      "anonymous": false,
      "inputs": [
        {
          "indexed": true,
          "internalType": "uint256",
          "name": "id",
          "type": "uint256"
        },
        {
          "indexed": false,
          "internalType": "address",
          "name": "from",
          "type": "address"
        }
      ],
      "name": "EpicMinted",
      "type": "event"
    },
    {
      "anonymous": false,
      "inputs": [
        {
          "indexed": true,
          "internalType": "address",
          "name": "from",
          "type": "address"
        },
        {
          "indexed": true,
          "internalType": "address",
          "name": "to",
          "type": "address"
        },
        {
          "indexed": true,
          "internalType": "uint256",
          "name": "tokenId",
          "type": "uint256"
        }
      ],
      "name": "Transfer",
      "type": "event"
    },
    {
      "inputs": [],
      "name": "MAX_MINT_COUNT",
      "outputs": [
        {
          "internalType": "uint256",
          "name": "",
          "type": "uint256"
        }
      ],
      "stateMutability": "view",
      "type": "function"
    },
    {
      "inputs": [
        {
          "internalType": "address",
          "name": "to",
          "type": "address"
        },
        {
          "internalType": "uint256",
          "name": "tokenId",
          "type": "uint256"
        }
      ],
      "name": "approve",
      "outputs": [],
      "stateMutability": "nonpayable",
      "type": "function"
    },
    {
      "inputs": [
        {
          "internalType": "address",
          "name": "owner",
          "type": "address"
        }
      ],
      "name": "balanceOf",
      "outputs": [
        {
          "internalType": "uint256",
          "name": "",
          "type": "uint256"
        }
      ],
      "stateMutability": "view",
      "type": "function"
    },
    {
      "inputs": [],
      "name": "currentMintCount",
      "outputs": [
        {
          "internalType": "uint256",
          "name": "",
          "type": "uint256"
        }
      ],
      "stateMutability": "view",
      "type": "function"
    },
    {
      "inputs": [
        {
          "internalType": "uint256",
          "name": "tokenId",
          "type": "uint256"
        }
      ],
      "name": "getApproved",
      "outputs": [
        {
          "internalType": "address",
          "name": "",
          "type": "address"
        }
      ],
      "stateMutability": "view",
      "type": "function"
    },
    {
      "inputs": [],
      "name": "getMaxMintCount",
      "outputs": [
        {
          "internalType": "uint256",
          "name": "",
          "type": "uint256"
        }
      ],
      "stateMutability": "pure",
      "type": "function"
    },
    {
      "inputs": [
        {
          "internalType": "address",
          "name": "owner",
          "type": "address"
        },
        {
          "internalType": "address",
          "name": "operator",
          "type": "address"
        }
      ],
      "name": "isApprovedForAll",
      "outputs": [
        {
          "internalType": "bool",
          "name": "",
          "type": "bool"
        }
      ],
      "stateMutability": "view",
      "type": "function"
    },
    {
      "inputs": [],
      "name": "makeAnEpicNFT",
      "outputs": [],
      "stateMutability": "nonpayable",
      "type": "function"
    },
    {
      "inputs": [],
      "name": "name",
      "outputs": [
        {
          "internalType": "string",
          "name": "",
          "type": "string"
        }
      ],
      "stateMutability": "view",
      "type": "function"
    },
    {
      "inputs": [
        {
          "internalType": "uint256",
          "name": "tokenId",
          "type": "uint256"
        }
      ],
      "name": "ownerOf",
      "outputs": [
        {
          "internalType": "address",
          "name": "",
          "type": "address"
        }
      ],
      "stateMutability": "view",
      "type": "function"
    },
    {
      "inputs": [
        {
          "internalType": "string",
          "name": "list_name",
          "type": "string"
        },
        {
          "internalType": "uint256",
          "name": "tokenId",
          "type": "uint256"
        },
        {
          "internalType": "string[]",
          "name": "list",
          "type": "string[]"
        }
      ],
      "name": "pickRandomWord",
      "outputs": [
        {
          "internalType": "string",
          "name": "",
          "type": "string"
        }
      ],
      "stateMutability": "pure",
      "type": "function"
    },
    {
      "inputs": [
        {
          "internalType": "address",
          "name": "from",
          "type": "address"
        },
        {
          "internalType": "address",
          "name": "to",
          "type": "address"
        },
        {
          "internalType": "uint256",
          "name": "tokenId",
          "type": "uint256"
        }
      ],
      "name": "safeTransferFrom",
      "outputs": [],
      "stateMutability": "nonpayable",
      "type": "function"
    },
    {
      "inputs": [
        {
          "internalType": "address",
          "name": "from",
          "type": "address"
        },
        {
          "internalType": "address",
          "name": "to",
          "type": "address"
        },
        {
          "internalType": "uint256",
          "name": "tokenId",
          "type": "uint256"
        },
        {
          "internalType": "bytes",
          "name": "_data",
          "type": "bytes"
        }
      ],
      "name": "safeTransferFrom",
      "outputs": [],
      "stateMutability": "nonpayable",
      "type": "function"
    },
    {
      "inputs": [
        {
          "internalType": "address",
          "name": "operator",
          "type": "address"
        },
        {
          "internalType": "bool",
          "name": "approved",
          "type": "bool"
        }
      ],
      "name": "setApprovalForAll",
      "outputs": [],
      "stateMutability": "nonpayable",
      "type": "function"
    },
    {
      "inputs": [
        {
          "internalType": "bytes4",
          "name": "interfaceId",
          "type": "bytes4"
        }
      ],
      "name": "supportsInterface",
      "outputs": [
        {
          "internalType": "bool",
          "name": "",
          "type": "bool"
        }
      ],
      "stateMutability": "view",
      "type": "function"
    },
    {
      "inputs": [],
      "name": "symbol",
      "outputs": [
        {
          "internalType": "string",
          "name": "",
          "type": "string"
        }
      ],
      "stateMutability": "view",
      "type": "function"
    },
    {
      "inputs": [
        {
          "internalType": "uint256",
          "name": "tokenId",
          "type": "uint256"
        }
      ],
      "name": "tokenURI",
      "outputs": [
        {
          "internalType": "string",
          "name": "",
          "type": "string"
        }
      ],
      "stateMutability": "view",
      "type": "function"
    },
    {
      "inputs": [
        {
          "internalType": "address",
          "name": "from",
          "type": "address"
        },
        {
          "internalType": "address",
          "name": "to",
          "type": "address"
        },
        {
          "internalType": "uint256",
          "name": "tokenId",
          "type": "uint256"
        }
      ],
      "name": "transferFrom",
      "outputs": [],
      "stateMutability": "nonpayable",
      "type": "function"
    }
  ],
  "bytecode": "0x608060405260405180610100016040528060dc81526020016200e93560dc9139600890805190602001906200003692919062009f1e565b506040518061086001604052806040518060400160405280600681526020017f427269676874000000000000000000000000000000000000000000000000000081525081526020016040518060400160405280600581526020017f42726f776e00000000000000000000000000000000000000000000000000000081525081526020016040518060400160405280600681526020017f42726f776e65000000000000000000000000000000000000000000000000000081525081526020016040518060400160405280600981526020017f427275736866697265000000000000000000000000000000000000000000000081525081526020016040518060400160405280600481526020017f43616d700000000000000000000000000000000000000000000000000000000081525081526020016040518060400160405280600781526020017f43616d706d616e0000000000000000000000000000000000000000000000000081525081526020016040518060400160405280600681526020017f43616e796f6e000000000000000000000000000000000000000000000000000081525081526020016040518060400160405280600981526020017f437269636b65747473000000000000000000000000000000000000000000000081525081526020016040518060400160405280600881526020017f437269636b65747300000000000000000000000000000000000000000000000081525081526020016040518060400160405280600581526020017f44756e657300000000000000000000000000000000000000000000000000000081525081526020016040518060400160405280600581526020017f446f6f6e7300000000000000000000000000000000000000000000000000000081525081526020016040518060400160405280600681526020017f446f6f6e6573000000000000000000000000000000000000000000000000000081525081526020016040518060400160405280600581526020017f44756e6e6500000000000000000000000000000000000000000000000000000081525081526020016040518060400160405280600881526020017f44756e6e656d616e00000000000000000000000000000000000000000000000081525081526020016040518060400160405280600581526020017f466c61747300000000000000000000000000000000000000000000000000000081525081526020016040518060400160405280600381526020017f466f78000000000000000000000000000000000000000000000000000000000081525081526020016040518060400160405280600481526020017f466f78780000000000000000000000000000000000000000000000000000000081525081526020016040518060400160405280600481526020017f476f6c640000000000000000000000000000000000000000000000000000000081525081526020016040518060400160405280600681526020017f476f6c64656e000000000000000000000000000000000000000000000000000081525081526020016040518060400160405280600481526020017f477265790000000000000000000000000000000000000000000000000000000081525081526020016040518060400160405280600481526020017f477261790000000000000000000000000000000000000000000000000000000081525081526020016040518060400160405280600581526020017f47756c636800000000000000000000000000000000000000000000000000000081525081526020016040518060400160405280600581526020017f47756c6c7900000000000000000000000000000000000000000000000000000081525081526020016040518060400160405280600581526020017f486172647900000000000000000000000000000000000000000000000000000081525081526020016040518060400160405280600581526020017f48696c6c7300000000000000000000000000000000000000000000000000000081525081526020016040518060400160405280600481526020017f48696c6c0000000000000000000000000000000000000000000000000000000081525081526020016040518060400160405280600681526020017f486f70706572000000000000000000000000000000000000000000000000000081525081526020016040518060400160405280600681526020017f48756e746572000000000000000000000000000000000000000000000000000081525081526020016040518060400160405280600881526020017f48756e74736d616e00000000000000000000000000000000000000000000000081525081526020016040518060400160405280600581526020017f4d6172636800000000000000000000000000000000000000000000000000000081525081526020016040518060400160405280600781526020017f4d6172636865720000000000000000000000000000000000000000000000000081525081526020016040518060400160405280600481526020017f4d6f6f6e0000000000000000000000000000000000000000000000000000000081525081526020016040518060400160405280600781526020017f5265646d6f6f6e0000000000000000000000000000000000000000000000000081525081526020016040518060400160405280600681526020017f50616c6d6572000000000000000000000000000000000000000000000000000081525081526020016040518060400160405280600581526020017f50616c6d7300000000000000000000000000000000000000000000000000000081525081526020016040518060400160405280600881526020017f506561727472656500000000000000000000000000000000000000000000000081525081526020016040518060400160405280600781526020017f506561726d616e0000000000000000000000000000000000000000000000000081525081526020016040518060400160405280600481526020017f526564640000000000000000000000000000000000000000000000000000000081525081526020016040518060400160405280600381526020017f526564000000000000000000000000000000000000000000000000000000000081525081526020016040518060400160405280600581526020017f526964657200000000000000000000000000000000000000000000000000000081525081526020016040518060400160405280600581526020017f527964657200000000000000000000000000000000000000000000000000000081525081526020016040518060400160405280600481526020017f526f636b0000000000000000000000000000000000000000000000000000000081525081526020016040518060400160405280600781526020017f526f636b6d616e0000000000000000000000000000000000000000000000000081525081526020016040518060400160405280600481526020017f526f636b0000000000000000000000000000000000000000000000000000000081525081526020016040518060400160405280600781526020017f526f636b6d616e0000000000000000000000000000000000000000000000000081525081526020016040518060400160405280600681526020017f526f636b6572000000000000000000000000000000000000000000000000000081525081526020016040518060400160405280600581526020017f53616e647300000000000000000000000000000000000000000000000000000081525081526020016040518060400160405280600681526020017f5363616c6573000000000000000000000000000000000000000000000000000081525081526020016040518060400160405280600881526020017f5265647363616c6500000000000000000000000000000000000000000000000081525081526020016040518060400160405280600981526020017f477265797363616c65000000000000000000000000000000000000000000000081525081526020016040518060400160405280600681526020017f53696e676572000000000000000000000000000000000000000000000000000081525081526020016040518060400160405280600581526020017f536d616c6c00000000000000000000000000000000000000000000000000000081525081526020016040518060400160405280600681526020017f536d616c6c73000000000000000000000000000000000000000000000000000081525081526020016040518060400160405280600481526020017f537461720000000000000000000000000000000000000000000000000000000081525081526020016040518060400160405280600581526020017f537461727200000000000000000000000000000000000000000000000000000081525081526020016040518060400160405280600581526020017f53746f6e6500000000000000000000000000000000000000000000000000000081525081526020016040518060400160405280600881526020017f53746f6e656d616e00000000000000000000000000000000000000000000000081525081526020016040518060400160405280600581526020017f53746f726d00000000000000000000000000000000000000000000000000000081525081526020016040518060400160405280600681526020017f53746f726d73000000000000000000000000000000000000000000000000000081525081526020016040518060400160405280600781526020017f537472696465720000000000000000000000000000000000000000000000000081525081526020016040518060400160405280600781526020017f537472796465720000000000000000000000000000000000000000000000000081525081526020016040518060400160405280600481526020017f53756e6e0000000000000000000000000000000000000000000000000000000081525081526020016040518060400160405280600681526020017f53756e6e6572000000000000000000000000000000000000000000000000000081525081526020016040518060400160405280600a81526020017f54756d626c65776565640000000000000000000000000000000000000000000081525081526020016040518060400160405280600681526020017f57616c6b6572000000000000000000000000000000000000000000000000000081525081526020016040518060400160405280600581526020017f576174657200000000000000000000000000000000000000000000000000000081525081526020016040518060400160405280600781526020017f5761747465727300000000000000000000000000000000000000000000000000815250815250600990604362000fc492919062009faf565b50604051806110a001604052806040518060400160405280600981526020017f4170706c6574726565000000000000000000000000000000000000000000000081525081526020016040518060400160405280600681526020017f4170706c6572000000000000000000000000000000000000000000000000000081525081526020016040518060400160405280600681526020017f4170706c696e000000000000000000000000000000000000000000000000000081525081526020016040518060400160405280600681526020017f4261726c6579000000000000000000000000000000000000000000000000000081525081526020016040518060400160405280600a81526020017f4261726c6579636f726e0000000000000000000000000000000000000000000081525081526020016040518060400160405280600a81526020017f4261726c657977696e650000000000000000000000000000000000000000000081525081526020016040518060400160405280600581526020017f4261726e7300000000000000000000000000000000000000000000000000000081525081526020016040518060400160405280600681526020017f4261726e6573000000000000000000000000000000000000000000000000000081525081526020016040518060400160405280600781526020017f4261726e6172640000000000000000000000000000000000000000000000000081525081526020016040518060400160405280600581526020017f4265616e7300000000000000000000000000000000000000000000000000000081525081526020016040518060400160405280600781526020017f4265616e6d616e0000000000000000000000000000000000000000000000000081525081526020016040518060400160405280600981526020017f4265616e7374616c6b000000000000000000000000000000000000000000000081525081526020016040518060400160405280600581526020017f426572727900000000000000000000000000000000000000000000000000000081525081526020016040518060400160405280600981526020017f42657272796c616e64000000000000000000000000000000000000000000000081525081526020016040518060400160405280600581526020017f426c6f6f6d00000000000000000000000000000000000000000000000000000081525081526020016040518060400160405280600981526020017f426c6f6f6d6c616e64000000000000000000000000000000000000000000000081525081526020016040518060400160405280600581526020017f42726f776e00000000000000000000000000000000000000000000000000000081525081526020016040518060400160405280600981526020017f42726f776e6c616e64000000000000000000000000000000000000000000000081525081526020016040518060400160405280600881526020017f42726f776e61726400000000000000000000000000000000000000000000000081525081526020016040518060400160405280600481526020017f42756c6c0000000000000000000000000000000000000000000000000000000081525081526020016040518060400160405280600881526020017f42756c6c7961726400000000000000000000000000000000000000000000000081525081526020016040518060400160405280600781526020017f436162626167650000000000000000000000000000000000000000000000000081525081526020016040518060400160405280600781526020017f4b6162626167650000000000000000000000000000000000000000000000000081525081526020016040518060400160405280600681526020017f436f74746f6e000000000000000000000000000000000000000000000000000081525081526020016040518060400160405280600a81526020017f436f74746f6e736565640000000000000000000000000000000000000000000081525081526020016040518060400160405280600681526020017f43726f707065000000000000000000000000000000000000000000000000000081525081526020016040518060400160405280600781526020017f43726f706d616e0000000000000000000000000000000000000000000000000081525081526020016040518060400160405280600881526020017f44616972796d616e00000000000000000000000000000000000000000000000081525081526020016040518060400160405280600881526020017f44617272796d616e00000000000000000000000000000000000000000000000081525081526020016040518060400160405280600581526020017f446172727900000000000000000000000000000000000000000000000000000081525081526020016040518060400160405280600581526020017f446572727900000000000000000000000000000000000000000000000000000081525081526020016040518060400160405280600681526020017f4661726d6572000000000000000000000000000000000000000000000000000081525081526020016040518060400160405280600681526020017f4661726d6f72000000000000000000000000000000000000000000000000000081525081526020016040518060400160405280600681526020017f4669656c6473000000000000000000000000000000000000000000000000000081525081526020016040518060400160405280600781526020017f4669656c6465720000000000000000000000000000000000000000000000000081525081526020016040518060400160405280600881526020017f4669656c646d616e00000000000000000000000000000000000000000000000081525081526020016040518060400160405280600581526020017f466c61747300000000000000000000000000000000000000000000000000000081525081526020016040518060400160405280600881526020017f526564666c61747300000000000000000000000000000000000000000000000081525081526020016040518060400160405280600981526020017f53616e64666c617473000000000000000000000000000000000000000000000081525081526020016040518060400160405280600a81526020017f53746f6e65666c6174730000000000000000000000000000000000000000000081525081526020016040518060400160405280600781526020017f466c6f776572730000000000000000000000000000000000000000000000000081525081526020016040518060400160405280600781526020017f476172646e65720000000000000000000000000000000000000000000000000081525081526020016040518060400160405280600881526020017f47617264656e657200000000000000000000000000000000000000000000000081525081526020016040518060400160405280600881526020017f47617264696e657200000000000000000000000000000000000000000000000081525081526020016040518060400160405280600581526020017f477265656e00000000000000000000000000000000000000000000000000000081525081526020016040518060400160405280600681526020017f477265656e65000000000000000000000000000000000000000000000000000081525081526020016040518060400160405280600981526020017f477265656e6c616e64000000000000000000000000000000000000000000000081525081526020016040518060400160405280600981526020017f477265656e79617264000000000000000000000000000000000000000000000081525081526020016040518060400160405280600581526020017f47726f766500000000000000000000000000000000000000000000000000000081525081526020016040518060400160405280600981526020017f47726f76656c616e64000000000000000000000000000000000000000000000081525081526020016040518060400160405280600481526020017f486179730000000000000000000000000000000000000000000000000000000081525081526020016040518060400160405280600581526020017f486179657300000000000000000000000000000000000000000000000000000081525081526020016040518060400160405280600781526020017f486179776172640000000000000000000000000000000000000000000000000081525081526020016040518060400160405280600981526020017f48656e6b6565706572000000000000000000000000000000000000000000000081525081526020016040518060400160405280600981526020017f48656e6e65726d616e000000000000000000000000000000000000000000000081525081526020016040518060400160405280600481526020017f486572640000000000000000000000000000000000000000000000000000000081525081526020016040518060400160405280600481526020017f487572640000000000000000000000000000000000000000000000000000000081525081526020016040518060400160405280600881526020017f486572646c616e6400000000000000000000000000000000000000000000000081525081526020016040518060400160405280600481526020017f4c616e640000000000000000000000000000000000000000000000000000000081525081526020016040518060400160405280600681526020017f4c616e646572000000000000000000000000000000000000000000000000000081525081526020016040518060400160405280600581526020017f4d6172657300000000000000000000000000000000000000000000000000000081525081526020016040518060400160405280600481526020017f4d6179720000000000000000000000000000000000000000000000000000000081525081526020016040518060400160405280600481526020017f4d6169720000000000000000000000000000000000000000000000000000000081525081526020016040518060400160405280600781526020017f4d6561646f77730000000000000000000000000000000000000000000000000081525081526020016040518060400160405280600481526020017f4d696c6b0000000000000000000000000000000000000000000000000000000081525081526020016040518060400160405280600681526020017f4d696c6c6574000000000000000000000000000000000000000000000000000081525081526020016040518060400160405280600781526020017f4d696c6c6574740000000000000000000000000000000000000000000000000081525081526020016040518060400160405280600581526020017f4d696c6c7300000000000000000000000000000000000000000000000000000081525081526020016040518060400160405280600681526020017f4d696c6c6572000000000000000000000000000000000000000000000000000081525081526020016040518060400160405280600781526020017f4d696c6c6172640000000000000000000000000000000000000000000000000081525081526020016040518060400160405280600581526020017f4e6565707300000000000000000000000000000000000000000000000000000081525081526020016040518060400160405280600881526020017f4e6565706c616e6400000000000000000000000000000000000000000000000081525081526020016040518060400160405280600481526020017f4e7574740000000000000000000000000000000000000000000000000000000081525081526020016040518060400160405280600681526020017f4e75746d616e000000000000000000000000000000000000000000000000000081525081526020016040518060400160405280600581526020017f4f6174657300000000000000000000000000000000000000000000000000000081525081526020016040518060400160405280600481526020017f4f6174730000000000000000000000000000000000000000000000000000000081525081526020016040518060400160405280600881526020017f4f7665726c616e6400000000000000000000000000000000000000000000000081525081526020016040518060400160405280600981526020017f4f7665726669656c64000000000000000000000000000000000000000000000081525081526020016040518060400160405280600881526020017f506561727472656500000000000000000000000000000000000000000000000081525081526020016040518060400160405280600781526020017f506561726d616e0000000000000000000000000000000000000000000000000081525081526020016040518060400160405280600581526020017f506561736500000000000000000000000000000000000000000000000000000081525081526020016040518060400160405280600681526020017f506561706f64000000000000000000000000000000000000000000000000000081525081526020016040518060400160405280600781526020017f506561626f64790000000000000000000000000000000000000000000000000081525081526020016040518060400160405280600681526020017f5069636b6574000000000000000000000000000000000000000000000000000081525081526020016040518060400160405280600881526020017f5069636b6574747300000000000000000000000000000000000000000000000081525081526020016040518060400160405280600781526020017f5069636b656e730000000000000000000000000000000000000000000000000081525081526020016040518060400160405280600781526020017f5069636b6d616e0000000000000000000000000000000000000000000000000081525081526020016040518060400160405280600581526020017f506c616e7400000000000000000000000000000000000000000000000000000081525081526020016040518060400160405280600781526020017f506c616e7465720000000000000000000000000000000000000000000000000081525081526020016040518060400160405280600981526020017f506c6f7567686d616e000000000000000000000000000000000000000000000081525081526020016040518060400160405280600781526020017f506c6f776d616e0000000000000000000000000000000000000000000000000081525081526020016040518060400160405280600b81526020017f506c6f75676865726d616e00000000000000000000000000000000000000000081525081526020016040518060400160405280600681526020017f506f6c6c656e000000000000000000000000000000000000000000000000000081525081526020016040518060400160405280600681526020017f506f6c6c696e000000000000000000000000000000000000000000000000000081525081526020016040518060400160405280600581526020017f506f6c6c7900000000000000000000000000000000000000000000000000000081525081526020016040518060400160405280600781526020017f506f6c6c6172640000000000000000000000000000000000000000000000000081525081526020016040518060400160405280600581526020017f5261696e7300000000000000000000000000000000000000000000000000000081525081526020016040518060400160405280600681526020017f5261696e6573000000000000000000000000000000000000000000000000000081525081526020016040518060400160405280600581526020017f5261796e7300000000000000000000000000000000000000000000000000000081525081526020016040518060400160405280600681526020017f5261796e6573000000000000000000000000000000000000000000000000000081525081526020016040518060400160405280600781526020017f5261696e6172640000000000000000000000000000000000000000000000000081525081526020016040518060400160405280600481526020017f526f6f740000000000000000000000000000000000000000000000000000000081525081526020016040518060400160405280600581526020017f526f6f746500000000000000000000000000000000000000000000000000000081525081526020016040518060400160405280600781526020017f5275746c616e640000000000000000000000000000000000000000000000000081525081526020016040518060400160405280600881526020017f536865706865726400000000000000000000000000000000000000000000000081525081526020016040518060400160405280600781526020017f536865706172640000000000000000000000000000000000000000000000000081525081526020016040518060400160405280600781526020017f536865707972640000000000000000000000000000000000000000000000000081525081526020016040518060400160405280600781526020017f536865617265720000000000000000000000000000000000000000000000000081525081526020016040518060400160405280600781526020017f536865657265720000000000000000000000000000000000000000000000000081525081526020016040518060400160405280600681526020017f536865617273000000000000000000000000000000000000000000000000000081525081526020016040518060400160405280600681526020017f536865657273000000000000000000000000000000000000000000000000000081525081526020016040518060400160405280600581526020017f536f77657200000000000000000000000000000000000000000000000000000081525081526020016040518060400160405280600681526020017f536f77617264000000000000000000000000000000000000000000000000000081525081526020016040518060400160405280600481526020017f546174650000000000000000000000000000000000000000000000000000000081525081526020016040518060400160405280600581526020017f546174657200000000000000000000000000000000000000000000000000000081525081526020016040518060400160405280600681526020017f546872657368000000000000000000000000000000000000000000000000000081525081526020016040518060400160405280600981526020017f546872657368657474000000000000000000000000000000000000000000000081525081526020016040518060400160405280600681526020017f54696c6c6572000000000000000000000000000000000000000000000000000081525081526020016040518060400160405280600781526020017f54696c6c6d616e0000000000000000000000000000000000000000000000000081525081526020016040518060400160405280600581526020017f56696e657300000000000000000000000000000000000000000000000000000081525081526020016040518060400160405280600881526020017f56696e656c616e6400000000000000000000000000000000000000000000000081525081526020016040518060400160405280600881526020017f57686561746c657900000000000000000000000000000000000000000000000081525081526020016040518060400160405280600781526020017f57686561746c790000000000000000000000000000000000000000000000000081525081526020016040518060400160405280600581526020017f576865617400000000000000000000000000000000000000000000000000000081525081526020016040518060400160405280600981526020017f5768697474616b6572000000000000000000000000000000000000000000000081525081526020016040518060400160405280600781526020017f576869746172640000000000000000000000000000000000000000000000000081525081526020016040518060400160405280600781526020017f57696e6e6f77730000000000000000000000000000000000000000000000000081525081526020016040518060400160405280600881526020017f57696e6e6f77657200000000000000000000000000000000000000000000000081525081526020016040518060400160405280600481526020017f576f6f6c0000000000000000000000000000000000000000000000000000000081525081526020016040518060400160405280600781526020017f576f6f6c6172640000000000000000000000000000000000000000000000000081525081526020016040518060400160405280600681526020017f596172646c79000000000000000000000000000000000000000000000000000081525081526020016040518060400160405280600781526020017f596172646c65790000000000000000000000000000000000000000000000000081525081526020016040518060400160405280600581526020017f5961726473000000000000000000000000000000000000000000000000000000815250815250600a90608562002e889291906200a016565b506040518061092001604052806040518060400160405280600481526020017f416c65730000000000000000000000000000000000000000000000000000000081525081526020016040518060400160405280600681526020017f416c656d616e000000000000000000000000000000000000000000000000000081525081526020016040518060400160405280600481526020017f416c65720000000000000000000000000000000000000000000000000000000081525081526020016040518060400160405280600581526020017f42616b657200000000000000000000000000000000000000000000000000000081525081526020016040518060400160405280600481526020017f42616b650000000000000000000000000000000000000000000000000000000081525081526020016040518060400160405280600781526020017f42616b656c65720000000000000000000000000000000000000000000000000081525081526020016040518060400160405280600481526020017f426172720000000000000000000000000000000000000000000000000000000081525081526020016040518060400160405280600581526020017f426172726500000000000000000000000000000000000000000000000000000081525081526020016040518060400160405280600681526020017f4261726d616e000000000000000000000000000000000000000000000000000081525081526020016040518060400160405280600581526020017f426572727900000000000000000000000000000000000000000000000000000081525081526020016040518060400160405280600881526020017f42657272796d616e00000000000000000000000000000000000000000000000081525081526020016040518060400160405280600881526020017f42657272696d616e00000000000000000000000000000000000000000000000081525081526020016040518060400160405280600581526020017f426f796c6500000000000000000000000000000000000000000000000000000081525081526020016040518060400160405280600681526020017f426f696c6573000000000000000000000000000000000000000000000000000081525081526020016040518060400160405280600681526020017f426f796c6573000000000000000000000000000000000000000000000000000081525081526020016040518060400160405280600681526020017f427265776572000000000000000000000000000000000000000000000000000081525081526020016040518060400160405280600881526020017f427265777374657200000000000000000000000000000000000000000000000081525081526020016040518060400160405280600781526020017f42726f796c65730000000000000000000000000000000000000000000000000081525081526020016040518060400160405280600781526020017f42726f696c65730000000000000000000000000000000000000000000000000081525081526020016040518060400160405280600781526020017f42726f796c65720000000000000000000000000000000000000000000000000081525081526020016040518060400160405280600781526020017f427574636865720000000000000000000000000000000000000000000000000081525081526020016040518060400160405280600881526020017f427574636865747400000000000000000000000000000000000000000000000081525081526020016040518060400160405280600481526020017f436f6f6b0000000000000000000000000000000000000000000000000000000081525081526020016040518060400160405280600481526020017f446963650000000000000000000000000000000000000000000000000000000081525081526020016040518060400160405280600a81526020017f446f75676865726d616e0000000000000000000000000000000000000000000081525081526020016040518060400160405280600781526020017f446f75676865720000000000000000000000000000000000000000000000000081525081526020016040518060400160405280600381526020017f467279000000000000000000000000000000000000000000000000000000000081525081526020016040518060400160405280600481526020017f467265790000000000000000000000000000000000000000000000000000000081525081526020016040518060400160405280600681526020017f4672796d616e000000000000000000000000000000000000000000000000000081525081526020016040518060400160405280600781526020017f476172646e65720000000000000000000000000000000000000000000000000081525081526020016040518060400160405280600881526020017f47617264656e657200000000000000000000000000000000000000000000000081525081526020016040518060400160405280600881526020017f47617264696e657200000000000000000000000000000000000000000000000081525081526020016040518060400160405280600681526020017f4772696c6c73000000000000000000000000000000000000000000000000000081525081526020016040518060400160405280600881526020017f4772696c6c65747400000000000000000000000000000000000000000000000081525081526020016040518060400160405280600581526020017f496e6e657300000000000000000000000000000000000000000000000000000081525081526020016040518060400160405280600681526020017f496e6e6d616e000000000000000000000000000000000000000000000000000081525081526020016040518060400160405280600581526020017f496e6d616e00000000000000000000000000000000000000000000000000000081525081526020016040518060400160405280600681526020017f4b6574746c65000000000000000000000000000000000000000000000000000081525081526020016040518060400160405280600b81526020017f4b6574746c65626c61636b00000000000000000000000000000000000000000081525081526020016040518060400160405280600981526020017f4b6574746c656d616e000000000000000000000000000000000000000000000081525081526020016040518060400160405280600881526020017f4b6e6561646c657200000000000000000000000000000000000000000000000081525081526020016040518060400160405280600881526020017f4b6e6561646d616e00000000000000000000000000000000000000000000000081525081526020016040518060400160405280600481526020017f4d696c6b0000000000000000000000000000000000000000000000000000000081525081526020016040518060400160405280600681526020017f4d696c6c6572000000000000000000000000000000000000000000000000000081525081526020016040518060400160405280600581526020017f4d696c6c7300000000000000000000000000000000000000000000000000000081525081526020016040518060400160405280600681526020017f4d696c6c6572000000000000000000000000000000000000000000000000000081525081526020016040518060400160405280600881526020017f50616c6577696e6500000000000000000000000000000000000000000000000081525081526020016040518060400160405280600381526020017f50616e000000000000000000000000000000000000000000000000000000000081525081526020016040518060400160405280600981526020017f50616e6e65726d616e000000000000000000000000000000000000000000000081525081526020016040518060400160405280600781526020017f50616e6e696e670000000000000000000000000000000000000000000000000081525081526020016040518060400160405280600781526020017f506570706572730000000000000000000000000000000000000000000000000081525081526020016040518060400160405280600681526020017f506570706572000000000000000000000000000000000000000000000000000081525081526020016040518060400160405280600781526020017f5069636b6c65720000000000000000000000000000000000000000000000000081525081526020016040518060400160405280600981526020017f5069636b6c656d616e000000000000000000000000000000000000000000000081525081526020016040518060400160405280600781526020017f5069636b6c65730000000000000000000000000000000000000000000000000081525081526020016040518060400160405280600681526020017f5069656d616e000000000000000000000000000000000000000000000000000081525081526020016040518060400160405280600881526020017f5069656d616b657200000000000000000000000000000000000000000000000081525081526020016040518060400160405280600581526020017f506f74747300000000000000000000000000000000000000000000000000000081525081526020016040518060400160405280600481526020017f506f74740000000000000000000000000000000000000000000000000000000081525081526020016040518060400160405280600681526020017f506f74746572000000000000000000000000000000000000000000000000000081525081526020016040518060400160405280600781526020017f52656477696e650000000000000000000000000000000000000000000000000081525081526020016040518060400160405280600a81526020017f526f61737465726d616e0000000000000000000000000000000000000000000081525081526020016040518060400160405280600481526020017f53616c740000000000000000000000000000000000000000000000000000000081525081526020016040518060400160405280600681526020017f53616c746572000000000000000000000000000000000000000000000000000081525081526020016040518060400160405280600581526020017f53696d6d7300000000000000000000000000000000000000000000000000000081525081526020016040518060400160405280600981526020017f53696d6d65726d616e000000000000000000000000000000000000000000000081525081526020016040518060400160405280600981526020017f536c61756768746572000000000000000000000000000000000000000000000081525081526020016040518060400160405280600581526020017f536d6f6b6500000000000000000000000000000000000000000000000000000081525081526020016040518060400160405280600681526020017f536d6f6b6572000000000000000000000000000000000000000000000000000081525081526020016040518060400160405280600581526020017f56696e657300000000000000000000000000000000000000000000000000000081525081526020016040518060400160405280600781526020017f56696e746e65720000000000000000000000000000000000000000000000000081525081526020016040518060400160405280600f81526020017f56696e616b65722057696e616b6572000000000000000000000000000000000081525081526020016040518060400160405280600781526020017f57696e656d616e00000000000000000000000000000000000000000000000000815250815250600b90604962003f789291906200a07d565b50604051806107e001604052806040518060400160405280600581526020017f426967677300000000000000000000000000000000000000000000000000000081525081526020016040518060400160405280600481526020017f426967670000000000000000000000000000000000000000000000000000000081525081526020016040518060400160405280600581526020017f427967677300000000000000000000000000000000000000000000000000000081525081526020016040518060400160405280600481526020017f43616d700000000000000000000000000000000000000000000000000000000081525081526020016040518060400160405280600781526020017f43616d706d616e0000000000000000000000000000000000000000000000000081525081526020016040518060400160405280600681526020017f436f61746573000000000000000000000000000000000000000000000000000081525081526020016040518060400160405280600581526020017f46726f737400000000000000000000000000000000000000000000000000000081525081526020016040518060400160405280600581526020017f467572727300000000000000000000000000000000000000000000000000000081525081526020016040518060400160405280600781526020017f467572726d616e0000000000000000000000000000000000000000000000000081525081526020016040518060400160405280600781526020017f47726179736b790000000000000000000000000000000000000000000000000081525081526020016040518060400160405280600881526020017f5768697465736b7900000000000000000000000000000000000000000000000081525081526020016040518060400160405280600881526020017f426c61636b736b7900000000000000000000000000000000000000000000000081525081526020016040518060400160405280600481526020017f477265790000000000000000000000000000000000000000000000000000000081525081526020016040518060400160405280600481526020017f477261790000000000000000000000000000000000000000000000000000000081525081526020016040518060400160405280600581526020017f486172647900000000000000000000000000000000000000000000000000000081525081526020016040518060400160405280600881526020017f4861726469736f6e00000000000000000000000000000000000000000000000081525081526020016040518060400160405280600881526020017f486172646c616e6400000000000000000000000000000000000000000000000081525081526020016040518060400160405280600781526020017f4861726c616e640000000000000000000000000000000000000000000000000081525081526020016040518060400160405280600581526020017f48696c6c7300000000000000000000000000000000000000000000000000000081525081526020016040518060400160405280600481526020017f48696c6c0000000000000000000000000000000000000000000000000000000081525081526020016040518060400160405280600581526020017f48796c6c7300000000000000000000000000000000000000000000000000000081525081526020016040518060400160405280600681526020017f48756e746572000000000000000000000000000000000000000000000000000081525081526020016040518060400160405280600881526020017f48756e74736d616e00000000000000000000000000000000000000000000000081525081526020016040518060400160405280600381526020017f496365000000000000000000000000000000000000000000000000000000000081525081526020016040518060400160405280600781526020017f4963656c616e640000000000000000000000000000000000000000000000000081525081526020016040518060400160405280600781526020017f49636577696e640000000000000000000000000000000000000000000000000081525081526020016040518060400160405280600981526020017f496365637574746572000000000000000000000000000000000000000000000081525081526020016040518060400160405280600781526020017f5963656c616e640000000000000000000000000000000000000000000000000081525081526020016040518060400160405280600781526020017f59636577696e640000000000000000000000000000000000000000000000000081525081526020016040518060400160405280600981526020017f596365637574746572000000000000000000000000000000000000000000000081525081526020016040518060400160405280600981526020017f4c6f6e676e69676874000000000000000000000000000000000000000000000081525081526020016040518060400160405280600881526020017f4c6f6e676461726b00000000000000000000000000000000000000000000000081525081526020016040518060400160405280600481526020017f4d6f6f6e0000000000000000000000000000000000000000000000000000000081525081526020016040518060400160405280600a81526020017f57696e7465726d6f6f6e0000000000000000000000000000000000000000000081525081526020016040518060400160405280600581526020017f4e6f72746800000000000000000000000000000000000000000000000000000081525081526020016040518060400160405280600881526020017f4e6f7274686d616e00000000000000000000000000000000000000000000000081525081526020016040518060400160405280600681526020017f4e6f726d616e000000000000000000000000000000000000000000000000000081525081526020016040518060400160405280600981526020017f4e6f7274686c616e64000000000000000000000000000000000000000000000081525081526020016040518060400160405280600781526020017f4e6f726c616e640000000000000000000000000000000000000000000000000081525081526020016040518060400160405280600381526020017f506978000000000000000000000000000000000000000000000000000000000081525081526020016040518060400160405280600781526020017f5069636b6d616e0000000000000000000000000000000000000000000000000081525081526020016040518060400160405280600681526020017f5069636b6573000000000000000000000000000000000000000000000000000081525081526020016040518060400160405280600681526020017f5079636b6573000000000000000000000000000000000000000000000000000081525081526020016040518060400160405280600681526020017f5365616c6573000000000000000000000000000000000000000000000000000081525081526020016040518060400160405280600581526020017f5365616c7300000000000000000000000000000000000000000000000000000081525081526020016040518060400160405280600681526020017f53696c766572000000000000000000000000000000000000000000000000000081525081526020016040518060400160405280600a81526020017f53696c7665726d6f6f6e0000000000000000000000000000000000000000000081525081526020016040518060400160405280600681526020017f53796c766572000000000000000000000000000000000000000000000000000081525081526020016040518060400160405280600481526020017f536e6f770000000000000000000000000000000000000000000000000000000081525081526020016040518060400160405280600681526020017f536e6f776573000000000000000000000000000000000000000000000000000081525081526020016040518060400160405280600481526020017f537461720000000000000000000000000000000000000000000000000000000081525081526020016040518060400160405280600581526020017f537461727200000000000000000000000000000000000000000000000000000081525081526020016040518060400160405280600981526020017f4e6f72746873746172000000000000000000000000000000000000000000000081525081526020016040518060400160405280600581526020017f53746f6e6500000000000000000000000000000000000000000000000000000081525081526020016040518060400160405280600881526020017f53746f6e656d616e00000000000000000000000000000000000000000000000081525081526020016040518060400160405280600781526020017f537472696465720000000000000000000000000000000000000000000000000081525081526020016040518060400160405280600781526020017f537472796465720000000000000000000000000000000000000000000000000081525081526020016040518060400160405280600681526020017f57616c6b6572000000000000000000000000000000000000000000000000000081525081526020016040518060400160405280600581526020017f576869746500000000000000000000000000000000000000000000000000000081525081526020016040518060400160405280600581526020017f576879746500000000000000000000000000000000000000000000000000000081525081526020016040518060400160405280600681526020017f57696e746572000000000000000000000000000000000000000000000000000081525081526020016040518060400160405280600781526020017f57696e746572730000000000000000000000000000000000000000000000000081525081526020016040518060400160405280600781526020017f57796e7465727300000000000000000000000000000000000000000000000000815250815250600c90603f62004e1a9291906200a0e4565b506040518061074001604052806040518060400160405280600681526020017f426f6262696e000000000000000000000000000000000000000000000000000081525081526020016040518060400160405280600481526020017f426f6c740000000000000000000000000000000000000000000000000000000081525081526020016040518060400160405280600581526020017f426f6c746500000000000000000000000000000000000000000000000000000081525081526020016040518060400160405280600681526020017f426f6c746572000000000000000000000000000000000000000000000000000081525081526020016040518060400160405280600681526020017f427574746f6e000000000000000000000000000000000000000000000000000081525081526020016040518060400160405280600b81526020017f427574746f6e776f72746800000000000000000000000000000000000000000081525081526020016040518060400160405280600681526020017f436170657273000000000000000000000000000000000000000000000000000081525081526020016040518060400160405280600681526020017f436f61746573000000000000000000000000000000000000000000000000000081525081526020016040518060400160405280600681526020017f436f74746f6e000000000000000000000000000000000000000000000000000081525081526020016040518060400160405280600481526020017f447965720000000000000000000000000000000000000000000000000000000081525081526020016040518060400160405280600381526020017f447965000000000000000000000000000000000000000000000000000000000081525081526020016040518060400160405280600881526020017f447965776f72746800000000000000000000000000000000000000000000000081525081526020016040518060400160405280600781526020017f44796572736f6e0000000000000000000000000000000000000000000000000081525081526020016040518060400160405280600581526020017f4479736f6e00000000000000000000000000000000000000000000000000000081525081526020016040518060400160405280600681526020017f46656c746572000000000000000000000000000000000000000000000000000081525081526020016040518060400160405280600981526020017f46656c7465726d616e000000000000000000000000000000000000000000000081525081526020016040518060400160405280600681526020017f476c6f766572000000000000000000000000000000000000000000000000000081525081526020016040518060400160405280600681526020017f486174746572000000000000000000000000000000000000000000000000000081525081526020016040518060400160405280600581526020017f486174747900000000000000000000000000000000000000000000000000000081525081526020016040518060400160405280600881526020017f48617474696d616e00000000000000000000000000000000000000000000000081525081526020016040518060400160405280600681526020017f486174736f6e000000000000000000000000000000000000000000000000000081525081526020016040518060400160405280600881526020017f48656d6d696e677300000000000000000000000000000000000000000000000081525081526020016040518060400160405280600781526020017f48656d696e67730000000000000000000000000000000000000000000000000081525081526020016040518060400160405280600681526020017f48656d736f6e000000000000000000000000000000000000000000000000000081525081526020016040518060400160405280600481526020017f487964650000000000000000000000000000000000000000000000000000000081525081526020016040518060400160405280600581526020017f486964657300000000000000000000000000000000000000000000000000000081525081526020016040518060400160405280600581526020017f487964657300000000000000000000000000000000000000000000000000000081525081526020016040518060400160405280600881526020017f4c6561746865727300000000000000000000000000000000000000000000000081525081526020016040518060400160405280600781526020017f4c6574686572730000000000000000000000000000000000000000000000000081525081526020016040518060400160405280600681526020017f4d6572636572000000000000000000000000000000000000000000000000000081525081526020016040518060400160405280600981526020017f4e6565646c656d616e000000000000000000000000000000000000000000000081525081526020016040518060400160405280600781526020017f4e6565646c65720000000000000000000000000000000000000000000000000081525081526020016040518060400160405280600b81526020017f4e6565646c65776f72746800000000000000000000000000000000000000000081525081526020016040518060400160405280600581526020017f5365616d7300000000000000000000000000000000000000000000000000000081525081526020016040518060400160405280600581526020017f5365656d7300000000000000000000000000000000000000000000000000000081525081526020016040518060400160405280600981526020017f5365656d776f727468000000000000000000000000000000000000000000000081525081526020016040518060400160405280600781526020017f536865617265720000000000000000000000000000000000000000000000000081525081526020016040518060400160405280600781526020017f536865657265720000000000000000000000000000000000000000000000000081525081526020016040518060400160405280600681526020017f536865617273000000000000000000000000000000000000000000000000000081525081526020016040518060400160405280600681526020017f536865657273000000000000000000000000000000000000000000000000000081525081526020016040518060400160405280600981526020017f53686f656d616b6572000000000000000000000000000000000000000000000081525081526020016040518060400160405280600881526020017f537469746368657300000000000000000000000000000000000000000000000081525081526020016040518060400160405280600b81526020017f537469746368776f72746800000000000000000000000000000000000000000081525081526020016040518060400160405280600681526020017f5461696c6f72000000000000000000000000000000000000000000000000000081525081526020016040518060400160405280600681526020017f5461796c6f72000000000000000000000000000000000000000000000000000081525081526020016040518060400160405280600681526020017f54616e6e6572000000000000000000000000000000000000000000000000000081525081526020016040518060400160405280600981526020017f54616e6e65726d616e000000000000000000000000000000000000000000000081525081526020016040518060400160405280600681526020017f546872656464000000000000000000000000000000000000000000000000000081525081526020016040518060400160405280600981526020017f5468726564646c6572000000000000000000000000000000000000000000000081525081526020016040518060400160405280600981526020017f5468726564646d616e000000000000000000000000000000000000000000000081525081526020016040518060400160405280600a81526020017f546872656464616b65720000000000000000000000000000000000000000000081525081526020016040518060400160405280600681526020017f576561766572000000000000000000000000000000000000000000000000000081525081526020016040518060400160405280600681526020017f576565766572000000000000000000000000000000000000000000000000000081525081526020016040518060400160405280600481526020017f576f6f6c0000000000000000000000000000000000000000000000000000000081525081526020016040518060400160405280600981526020017f576f6f6c776f727468000000000000000000000000000000000000000000000081525081526020016040518060400160405280600681526020017f596172646c79000000000000000000000000000000000000000000000000000081525081526020016040518060400160405280600781526020017f596172646c65790000000000000000000000000000000000000000000000000081525081526020016040518060400160405280600581526020017f5961726473000000000000000000000000000000000000000000000000000000815250815250600d90603a62005b959291906200a14b565b506040518061082001604052806040518060400160405280600381526020017f426179000000000000000000000000000000000000000000000000000000000081525081526020016040518060400160405280600581526020017f426179657300000000000000000000000000000000000000000000000000000081525081526020016040518060400160405280600581526020017f426179657200000000000000000000000000000000000000000000000000000081525081526020016040518060400160405280600681526020017f426179657273000000000000000000000000000000000000000000000000000081525081526020016040518060400160405280600781526020017f426561636865720000000000000000000000000000000000000000000000000081525081526020016040518060400160405280600581526020017f426561636800000000000000000000000000000000000000000000000000000081525081526020016040518060400160405280600481526020017f426c75650000000000000000000000000000000000000000000000000000000081525081526020016040518060400160405280600681526020017f426f776d616e000000000000000000000000000000000000000000000000000081525081526020016040518060400160405280600881526020017f436173746177617900000000000000000000000000000000000000000000000081525081526020016040518060400160405280600581526020017f437261626200000000000000000000000000000000000000000000000000000081525081526020016040518060400160405280600481526020017f437261620000000000000000000000000000000000000000000000000000000081525081526020016040518060400160405280600581526020017f437265737400000000000000000000000000000000000000000000000000000081525081526020016040518060400160405280600481526020017f446179730000000000000000000000000000000000000000000000000000000081525081526020016040518060400160405280600581526020017f446179657300000000000000000000000000000000000000000000000000000081525081526020016040518060400160405280600581526020017f44756e657300000000000000000000000000000000000000000000000000000081525081526020016040518060400160405280600581526020017f446f6f6e7300000000000000000000000000000000000000000000000000000081525081526020016040518060400160405280600681526020017f446f6f6e6573000000000000000000000000000000000000000000000000000081525081526020016040518060400160405280600581526020017f44756e6e6500000000000000000000000000000000000000000000000000000081525081526020016040518060400160405280600881526020017f44756e6e656d616e00000000000000000000000000000000000000000000000081525081526020016040518060400160405280600481526020017f456464790000000000000000000000000000000000000000000000000000000081525081526020016040518060400160405280600681526020017f466973686572000000000000000000000000000000000000000000000000000081525081526020016040518060400160405280600781526020017f466973686d616e0000000000000000000000000000000000000000000000000081525081526020016040518060400160405280600781526020017f466c6f776572730000000000000000000000000000000000000000000000000081525081526020016040518060400160405280600681526020017f486172706572000000000000000000000000000000000000000000000000000081525081526020016040518060400160405280600481526020017f486f6f6b0000000000000000000000000000000000000000000000000000000081525081526020016040518060400160405280600581526020017f486f6f6b6500000000000000000000000000000000000000000000000000000081525081526020016040518060400160405280600481526020017f496c65730000000000000000000000000000000000000000000000000000000081525081526020016040518060400160405280600581526020017f49736c657300000000000000000000000000000000000000000000000000000081525081526020016040518060400160405280600581526020017f41696c657300000000000000000000000000000000000000000000000000000081525081526020016040518060400160405280600481526020017f4d6173740000000000000000000000000000000000000000000000000000000081525081526020016040518060400160405280600681526020017f50616c6d6572000000000000000000000000000000000000000000000000000081525081526020016040518060400160405280600581526020017f50616c6d7300000000000000000000000000000000000000000000000000000081525081526020016040518060400160405280600681526020017f5261666d616e000000000000000000000000000000000000000000000000000081525081526020016040518060400160405280600781526020017f526166746d616e0000000000000000000000000000000000000000000000000081525081526020016040518060400160405280600481526020017f5265656c0000000000000000000000000000000000000000000000000000000081525081526020016040518060400160405280600881526020017f5265656c696e677300000000000000000000000000000000000000000000000081525081526020016040518060400160405280600481526020017f53616c740000000000000000000000000000000000000000000000000000000081525081526020016040518060400160405280600781526020017f53656173616c740000000000000000000000000000000000000000000000000081525081526020016040518060400160405280600581526020017f53616e647300000000000000000000000000000000000000000000000000000081525081526020016040518060400160405280600781526020017f53616e646d616e0000000000000000000000000000000000000000000000000081525081526020016040518060400160405280600981526020017f536561627265657a65000000000000000000000000000000000000000000000081525081526020016040518060400160405280600581526020017f5368656c6c00000000000000000000000000000000000000000000000000000081525081526020016040518060400160405280600881526020017f5368656c6c6d616e00000000000000000000000000000000000000000000000081525081526020016040518060400160405280600a81526020017f5368656c6c6d6f756e640000000000000000000000000000000000000000000081525081526020016040518060400160405280600781526020017f5368656c6c65720000000000000000000000000000000000000000000000000081525081526020016040518060400160405280600781526020017f5368656c6c65790000000000000000000000000000000000000000000000000081525081526020016040518060400160405280600681526020017f53686f616c73000000000000000000000000000000000000000000000000000081525081526020016040518060400160405280600681526020017f53696e676572000000000000000000000000000000000000000000000000000081525081526020016040518060400160405280600481526020017f537461720000000000000000000000000000000000000000000000000000000081525081526020016040518060400160405280600581526020017f537461727200000000000000000000000000000000000000000000000000000081525081526020016040518060400160405280600581526020017f537465726e00000000000000000000000000000000000000000000000000000081525081526020016040518060400160405280600681526020017f537465726e65000000000000000000000000000000000000000000000000000081525081526020016040518060400160405280600a81526020017f5374696c6c77617465720000000000000000000000000000000000000000000081525081526020016040518060400160405280600581526020017f53746f726d00000000000000000000000000000000000000000000000000000081525081526020016040518060400160405280600681526020017f53746f726d73000000000000000000000000000000000000000000000000000081525081526020016040518060400160405280600781526020017f53756d6d6572730000000000000000000000000000000000000000000000000081525081526020016040518060400160405280600481526020017f53756e6e0000000000000000000000000000000000000000000000000000000081525081526020016040518060400160405280600681526020017f53756e6e6572000000000000000000000000000000000000000000000000000081525081526020016040518060400160405280600781526020017f5377696d6d65720000000000000000000000000000000000000000000000000081525081526020016040518060400160405280600881526020017f536877696d6d657200000000000000000000000000000000000000000000000081525081526020016040518060400160405280600781526020017f5377796d6d65720000000000000000000000000000000000000000000000000081525081526020016040518060400160405280600981526020017f546964657761746572000000000000000000000000000000000000000000000081525081526020016040518060400160405280600681526020017f576174657273000000000000000000000000000000000000000000000000000081525081526020016040518060400160405280600781526020017f576174746572730000000000000000000000000000000000000000000000000081525081526020016040518060400160405280600881526020017f57617465726d616e000000000000000000000000000000000000000000000000815250815250600e90604162006aad9291906200a1b2565b506040518061076001604052806040518060400160405280600481526020017f417263680000000000000000000000000000000000000000000000000000000081525081526020016040518060400160405280600981526020017f417263686d616b6572000000000000000000000000000000000000000000000081525081526020016040518060400160405280600781526020017f4261736b6574740000000000000000000000000000000000000000000000000081525081526020016040518060400160405280600681526020017f4261736b6574000000000000000000000000000000000000000000000000000081525081526020016040518060400160405280600681526020017f42696c646572000000000000000000000000000000000000000000000000000081525081526020016040518060400160405280600781526020017f4275696c6465720000000000000000000000000000000000000000000000000081525081526020016040518060400160405280600681526020017f42756c646572000000000000000000000000000000000000000000000000000081525081526020016040518060400160405280600581526020017f42696c647300000000000000000000000000000000000000000000000000000081525081526020016040518060400160405280600481526020017f426c6f770000000000000000000000000000000000000000000000000000000081525081526020016040518060400160405280600881526020017f427269636b6d616e00000000000000000000000000000000000000000000000081525081526020016040518060400160405280600781526020017f427269636b65720000000000000000000000000000000000000000000000000081525081526020016040518060400160405280600681526020017f427279636b73000000000000000000000000000000000000000000000000000081525081526020016040518060400160405280600681526020017f427269636b73000000000000000000000000000000000000000000000000000081525081526020016040518060400160405280600581526020017f427572676800000000000000000000000000000000000000000000000000000081525081526020016040518060400160405280600481526020017f426572670000000000000000000000000000000000000000000000000000000081525081526020016040518060400160405280600481526020017f427572670000000000000000000000000000000000000000000000000000000081525081526020016040518060400160405280600781526020017f427572676865720000000000000000000000000000000000000000000000000081525081526020016040518060400160405280600681526020017f426572676572000000000000000000000000000000000000000000000000000081525081526020016040518060400160405280600681526020017f427572676572000000000000000000000000000000000000000000000000000081525081526020016040518060400160405280600981526020017f43617270656e746572000000000000000000000000000000000000000000000081525081526020016040518060400160405280600881526020017f4368616e646c657200000000000000000000000000000000000000000000000081525081526020016040518060400160405280600781526020017f43616e646c65720000000000000000000000000000000000000000000000000081525081526020016040518060400160405280600481526020017f436c61790000000000000000000000000000000000000000000000000000000081525081526020016040518060400160405280600681526020017f436f6f706572000000000000000000000000000000000000000000000000000081525081526020016040518060400160405280600781526020017f437261667465720000000000000000000000000000000000000000000000000081525081526020016040518060400160405280600581526020017f476c61737300000000000000000000000000000000000000000000000000000081525081526020016040518060400160405280600781526020017f476c617a6965720000000000000000000000000000000000000000000000000081525081526020016040518060400160405280600781526020017f476c61736965720000000000000000000000000000000000000000000000000081525081526020016040518060400160405280600681526020017f48616d6d6572000000000000000000000000000000000000000000000000000081525081526020016040518060400160405280600581526020017f4d616b657200000000000000000000000000000000000000000000000000000081525081526020016040518060400160405280600581526020017f4d61736f6e00000000000000000000000000000000000000000000000000000081525081526020016040518060400160405280600581526020017f4d6173656e00000000000000000000000000000000000000000000000000000081525081526020016040518060400160405280600581526020017f4d6173796e00000000000000000000000000000000000000000000000000000081525081526020016040518060400160405280600581526020017f506f74747300000000000000000000000000000000000000000000000000000081525081526020016040518060400160405280600481526020017f506f74740000000000000000000000000000000000000000000000000000000081525081526020016040518060400160405280600681526020017f506f74746572000000000000000000000000000000000000000000000000000081525081526020016040518060400160405280600881526020017f517561727269657200000000000000000000000000000000000000000000000081525081526020016040518060400160405280600981526020017f5175617272796d616e000000000000000000000000000000000000000000000081525081526020016040518060400160405280600481526020017f526f636b0000000000000000000000000000000000000000000000000000000081525081526020016040518060400160405280600781526020017f526f636b6d616e0000000000000000000000000000000000000000000000000081525081526020016040518060400160405280600681526020017f526f636b6572000000000000000000000000000000000000000000000000000081525081526020016040518060400160405280600481526020017f526f6f660000000000000000000000000000000000000000000000000000000081525081526020016040518060400160405280600581526020017f526f6f666500000000000000000000000000000000000000000000000000000081525081526020016040518060400160405280600681526020017f536177796572000000000000000000000000000000000000000000000000000081525081526020016040518060400160405280600581526020017f53746f6e6500000000000000000000000000000000000000000000000000000081525081526020016040518060400160405280600881526020017f53746f6e656d616e00000000000000000000000000000000000000000000000081525081526020016040518060400160405280600681526020017f546f776e6573000000000000000000000000000000000000000000000000000081525081526020016040518060400160405280600581526020017f546f776e7300000000000000000000000000000000000000000000000000000081525081526020016040518060400160405280600581526020017f546f776e7900000000000000000000000000000000000000000000000000000081525081526020016040518060400160405280600481526020017f5761686c0000000000000000000000000000000000000000000000000000000081525081526020016040518060400160405280600481526020017f57616c6c0000000000000000000000000000000000000000000000000000000081525081526020016040518060400160405280600581526020017f5761686c7300000000000000000000000000000000000000000000000000000081525081526020016040518060400160405280600581526020017f57616c6c7300000000000000000000000000000000000000000000000000000081525081526020016040518060400160405280600681526020017f57616c6c6572000000000000000000000000000000000000000000000000000081525081526020016040518060400160405280600681526020017f5761786d616e000000000000000000000000000000000000000000000000000081525081526020016040518060400160405280600381526020017f576178000000000000000000000000000000000000000000000000000000000081525081526020016040518060400160405280600681526020017f5761636b6573000000000000000000000000000000000000000000000000000081525081526020016040518060400160405280600481526020017f576f6f640000000000000000000000000000000000000000000000000000000081525081526020016040518060400160405280600581526020017f576f6f6473000000000000000000000000000000000000000000000000000000815250815250600f90603b620078639291906200a219565b5060405180610d2001604052806040518060400160405280600581526020017f42696c6c7900000000000000000000000000000000000000000000000000000081525081526020016040518060400160405280600681526020017f42696c6c6965000000000000000000000000000000000000000000000000000081525081526020016040518060400160405280600681526020017f426c75666665000000000000000000000000000000000000000000000000000081525081526020016040518060400160405280600c81526020017f426c756666636c696d626572000000000000000000000000000000000000000081525081526020016040518060400160405280600781526020017f426f756c6465720000000000000000000000000000000000000000000000000081525081526020016040518060400160405280600681526020017f42756c646572000000000000000000000000000000000000000000000000000081525081526020016040518060400160405280600481526020017f43616d700000000000000000000000000000000000000000000000000000000081525081526020016040518060400160405280600781526020017f43616d706d616e0000000000000000000000000000000000000000000000000081525081526020016040518060400160405280600781526020017f436c61796d65720000000000000000000000000000000000000000000000000081525081526020016040518060400160405280600681526020017f436c61796d73000000000000000000000000000000000000000000000000000081525081526020016040518060400160405280600781526020017f436c61696d65720000000000000000000000000000000000000000000000000081525081526020016040518060400160405280600481526020017f436f6c650000000000000000000000000000000000000000000000000000000081525081526020016040518060400160405280600581526020017f436f6c657200000000000000000000000000000000000000000000000000000081525081526020016040518060400160405280600781526020017f436f6c656d616e0000000000000000000000000000000000000000000000000081525081526020016040518060400160405280600781526020017f436f616c6d616e0000000000000000000000000000000000000000000000000081525081526020016040518060400160405280600681526020017f436f616c6572000000000000000000000000000000000000000000000000000081525081526020016040518060400160405280600a81526020017f436f616c6469676765720000000000000000000000000000000000000000000081525081526020016040518060400160405280600a81526020017f436f6c656465676765720000000000000000000000000000000000000000000081525081526020016040518060400160405280600681526020017f436f6e646f72000000000000000000000000000000000000000000000000000081525081526020016040518060400160405280600981526020017f436f6e646f726d616e000000000000000000000000000000000000000000000081525081526020016040518060400160405280600581526020017f437261676700000000000000000000000000000000000000000000000000000081525081526020016040518060400160405280600781526020017f437261676d616e0000000000000000000000000000000000000000000000000081525081526020016040518060400160405280600581526020017f446967677300000000000000000000000000000000000000000000000000000081525081526020016040518060400160405280600681526020017f446967676572000000000000000000000000000000000000000000000000000081525081526020016040518060400160405280600781526020017f446967676d616e0000000000000000000000000000000000000000000000000081525081526020016040518060400160405280600681526020017f446967676572000000000000000000000000000000000000000000000000000081525081526020016040518060400160405280600781526020017f446967676574740000000000000000000000000000000000000000000000000081525081526020016040518060400160405280600b81526020017f447261676f6e686f61726400000000000000000000000000000000000000000081525081526020016040518060400160405280600a81526020017f447261676f6e686f72640000000000000000000000000000000000000000000081525081526020016040518060400160405280600681526020017f447261676f6e000000000000000000000000000000000000000000000000000081525081526020016040518060400160405280600581526020017f4472616b6500000000000000000000000000000000000000000000000000000081525081526020016040518060400160405280600681526020017f447265646765000000000000000000000000000000000000000000000000000081525081526020016040518060400160405280600781526020017f447265646765720000000000000000000000000000000000000000000000000081525081526020016040518060400160405280600481526020017f48616c6c0000000000000000000000000000000000000000000000000000000081525081526020016040518060400160405280600481526020017f4861756c0000000000000000000000000000000000000000000000000000000081525081526020016040518060400160405280600781526020017f486569676874730000000000000000000000000000000000000000000000000081525081526020016040518060400160405280600681526020017f486967687473000000000000000000000000000000000000000000000000000081525081526020016040518060400160405280600581526020017f487974657300000000000000000000000000000000000000000000000000000081525081526020016040518060400160405280600581526020017f486974657300000000000000000000000000000000000000000000000000000081525081526020016040518060400160405280600881526020017f486967686c616e6400000000000000000000000000000000000000000000000081525081526020016040518060400160405280600581526020017f48696c6c7300000000000000000000000000000000000000000000000000000081525081526020016040518060400160405280600481526020017f48696c6c0000000000000000000000000000000000000000000000000000000081525081526020016040518060400160405280600b81526020017f48696c6c636c696d62657200000000000000000000000000000000000000000081525081526020016040518060400160405280600a81526020017f48796c6c746f707065720000000000000000000000000000000000000000000081525081526020016040518060400160405280600581526020017f486f61726400000000000000000000000000000000000000000000000000000081525081526020016040518060400160405280600481526020017f486f72640000000000000000000000000000000000000000000000000000000081525081526020016040518060400160405280600481526020017f486f61720000000000000000000000000000000000000000000000000000000081525081526020016040518060400160405280600a81526020017f486f61726469676765720000000000000000000000000000000000000000000081525081526020016040518060400160405280600981526020017f486f72646567676572000000000000000000000000000000000000000000000081525081526020016040518060400160405280600481526020017f4b6964640000000000000000000000000000000000000000000000000000000081525081526020016040518060400160405280600681526020017f4b69706d616e000000000000000000000000000000000000000000000000000081525081526020016040518060400160405280600681526020017f4b6970706572000000000000000000000000000000000000000000000000000081525081526020016040518060400160405280600681526020017f4b6970736f6e000000000000000000000000000000000000000000000000000081525081526020016040518060400160405280600b81526020017f4b6f707065726669656c6400000000000000000000000000000000000000000081525081526020016040518060400160405280600581526020017f4d696e657200000000000000000000000000000000000000000000000000000081525081526020016040518060400160405280600581526020017f4d796e657200000000000000000000000000000000000000000000000000000081525081526020016040518060400160405280600581526020017f4d796e6f7200000000000000000000000000000000000000000000000000000081525081526020016040518060400160405280600581526020017f4d696e6f7200000000000000000000000000000000000000000000000000000081525081526020016040518060400160405280600481526020017f4d6f6c650000000000000000000000000000000000000000000000000000000081525081526020016040518060400160405280600581526020017f4d6f6c657200000000000000000000000000000000000000000000000000000081525081526020016040518060400160405280600681526020017f4d6f6c6c6572000000000000000000000000000000000000000000000000000081525081526020016040518060400160405280600681526020017f4d6f6c736f6e000000000000000000000000000000000000000000000000000081525081526020016040518060400160405280600681526020017f4d6f6c73656e000000000000000000000000000000000000000000000000000081525081526020016040518060400160405280600481526020017f4f7265730000000000000000000000000000000000000000000000000000000081525081526020016040518060400160405280600381526020017f4f7272000000000000000000000000000000000000000000000000000000000081525081526020016040518060400160405280600481526020017f4f7272730000000000000000000000000000000000000000000000000000000081525081526020016040518060400160405280600981526020017f4f7265646967676572000000000000000000000000000000000000000000000081525081526020016040518060400160405280600981526020017f4f7272646567676572000000000000000000000000000000000000000000000081525081526020016040518060400160405280600581526020017f4f72736f6e00000000000000000000000000000000000000000000000000000081525081526020016040518060400160405280600681526020017f4f727273656e000000000000000000000000000000000000000000000000000081525081526020016040518060400160405280600381526020017f50616e000000000000000000000000000000000000000000000000000000000081525081526020016040518060400160405280600481526020017f50616e730000000000000000000000000000000000000000000000000000000081525081526020016040518060400160405280600981526020017f50616e6e65726d616e000000000000000000000000000000000000000000000081525081526020016040518060400160405280600781526020017f50616e6e696e670000000000000000000000000000000000000000000000000081525081526020016040518060400160405280600581526020017f5065616b7300000000000000000000000000000000000000000000000000000081525081526020016040518060400160405280600581526020017f5065656b7300000000000000000000000000000000000000000000000000000081525081526020016040518060400160405280600481526020017f50696b650000000000000000000000000000000000000000000000000000000081525081526020016040518060400160405280600481526020017f50796b650000000000000000000000000000000000000000000000000000000081525081526020016040518060400160405280600b81526020017f50696b65636c696d62657200000000000000000000000000000000000000000081525081526020016040518060400160405280600a81526020017f50796b65746f707065720000000000000000000000000000000000000000000081525081526020016040518060400160405280600381526020017f506978000000000000000000000000000000000000000000000000000000000081525081526020016040518060400160405280600781526020017f5069636b6d616e0000000000000000000000000000000000000000000000000081525081526020016040518060400160405280600681526020017f5069636b6573000000000000000000000000000000000000000000000000000081525081526020016040518060400160405280600681526020017f5079636b6573000000000000000000000000000000000000000000000000000081525081526020016040518060400160405280600781526020017f5069636b656e730000000000000000000000000000000000000000000000000081525081526020016040518060400160405280600881526020017f517561727269657200000000000000000000000000000000000000000000000081525081526020016040518060400160405280600981526020017f5175617272796d616e000000000000000000000000000000000000000000000081525081526020016040518060400160405280600581526020017f526964676500000000000000000000000000000000000000000000000000000081525081526020016040518060400160405280600c81526020017f5269646765636c696d626572000000000000000000000000000000000000000081525081526020016040518060400160405280600b81526020017f5269646765746f7070657200000000000000000000000000000000000000000081525081526020016040518060400160405280600481526020017f526f636b0000000000000000000000000000000000000000000000000000000081525081526020016040518060400160405280600781526020017f526f636b6d616e0000000000000000000000000000000000000000000000000081525081526020016040518060400160405280600681526020017f526f636b6572000000000000000000000000000000000000000000000000000081525081526020016040518060400160405280600981526020017f526f636b7269646765000000000000000000000000000000000000000000000081525081526020016040518060400160405280600481526020017f536e6f770000000000000000000000000000000000000000000000000000000081525081526020016040518060400160405280600681526020017f536e6f776573000000000000000000000000000000000000000000000000000081525081526020016040518060400160405280600581526020017f537061646500000000000000000000000000000000000000000000000000000081525081526020016040518060400160405280600e81526020017f53706164657220537072696e677300000000000000000000000000000000000081525081526020016040518060400160405280600881526020017f537072696e67657200000000000000000000000000000000000000000000000081525081526020016040518060400160405280600581526020017f53746f6e6500000000000000000000000000000000000000000000000000000081525081526020016040518060400160405280600881526020017f53746f6e656d616e00000000000000000000000000000000000000000000000081525081526020016040518060400160405280600981526020017f556e64657268696c6c000000000000000000000000000000000000000000000081525081526020016040518060400160405280600981526020017f556e646572776f6f64000000000000000000000000000000000000000000000081525081526020016040518060400160405280600881526020017f556e6465726d616e00000000000000000000000000000000000000000000000081525081526020016040518060400160405280600681526020017f57616c6b657200000000000000000000000000000000000000000000000000008152508152506010906069620090b39291906200a280565b506040518061076001604052806040518060400160405280600481526020017f426172720000000000000000000000000000000000000000000000000000000081525081526020016040518060400160405280600581526020017f426172726500000000000000000000000000000000000000000000000000000081525081526020016040518060400160405280600481526020017f436173680000000000000000000000000000000000000000000000000000000081525081526020016040518060400160405280600681526020017f436f70706572000000000000000000000000000000000000000000000000000081525081526020016040518060400160405280600781526020017f436f70706572730000000000000000000000000000000000000000000000000081525081526020016040518060400160405280600581526020017f437572727900000000000000000000000000000000000000000000000000000081525081526020016040518060400160405280600581526020017f4465616c7300000000000000000000000000000000000000000000000000000081525081526020016040518060400160405280600581526020017f4465656c7300000000000000000000000000000000000000000000000000000081525081526020016040518060400160405280600481526020017f4465656c0000000000000000000000000000000000000000000000000000000081525081526020016040518060400160405280600881526020017f4465656c616b657200000000000000000000000000000000000000000000000081525081526020016040518060400160405280600781526020017f4465656c6d616e0000000000000000000000000000000000000000000000000081525081526020016040518060400160405280600781526020017f4469616d6f6e640000000000000000000000000000000000000000000000000081525081526020016040518060400160405280600581526020017f476c61737300000000000000000000000000000000000000000000000000000081525081526020016040518060400160405280600781526020017f476c617a6965720000000000000000000000000000000000000000000000000081525081526020016040518060400160405280600781526020017f476c61736965720000000000000000000000000000000000000000000000000081525081526020016040518060400160405280600481526020017f476f6c640000000000000000000000000000000000000000000000000000000081525081526020016040518060400160405280600681526020017f476f6c64656e000000000000000000000000000000000000000000000000000081525081526020016040518060400160405280600981526020017f476f6c64736d697468000000000000000000000000000000000000000000000081525081526020016040518060400160405280600781526020017f476f6c646d616e0000000000000000000000000000000000000000000000000081525081526020016040518060400160405280600681526020017f4a6577656c73000000000000000000000000000000000000000000000000000081525081526020016040518060400160405280600581526020017f4a756c657300000000000000000000000000000000000000000000000000000081525081526020016040518060400160405280600581526020017f4a65776c7300000000000000000000000000000000000000000000000000000081525081526020016040518060400160405280600681526020017f4c656e646572000000000000000000000000000000000000000000000000000081525081526020016040518060400160405280600981526020017f4c656e6465726d616e000000000000000000000000000000000000000000000081525081526020016040518060400160405280600681526020017f4c796e646572000000000000000000000000000000000000000000000000000081525081526020016040518060400160405280600681526020017f4d6572636572000000000000000000000000000000000000000000000000000081525081526020016040518060400160405280600581526020017f4d6f6e657900000000000000000000000000000000000000000000000000000081525081526020016040518060400160405280600581526020017f4d756e6e7900000000000000000000000000000000000000000000000000000081525081526020016040518060400160405280600581526020017f4d6f6e6e7900000000000000000000000000000000000000000000000000000081525081526020016040518060400160405280600681526020017f4d756e6e6565000000000000000000000000000000000000000000000000000081525081526020016040518060400160405280600681526020017f4d6f6e6e6565000000000000000000000000000000000000000000000000000081525081526020016040518060400160405280600781526020017f506570706572730000000000000000000000000000000000000000000000000081525081526020016040518060400160405280600681526020017f506570706572000000000000000000000000000000000000000000000000000081525081526020016040518060400160405280600481526020017f526963680000000000000000000000000000000000000000000000000000000081525081526020016040518060400160405280600781526020017f526963686d616e0000000000000000000000000000000000000000000000000081525081526020016040518060400160405280600781526020017f526963686574740000000000000000000000000000000000000000000000000081525081526020016040518060400160405280600681526020017f526963686573000000000000000000000000000000000000000000000000000081525081526020016040518060400160405280600781526020017f53616666726f6e0000000000000000000000000000000000000000000000000081525081526020016040518060400160405280600481526020017f536167650000000000000000000000000000000000000000000000000000000081525081526020016040518060400160405280600481526020017f53616c740000000000000000000000000000000000000000000000000000000081525081526020016040518060400160405280600681526020017f5363616c6573000000000000000000000000000000000000000000000000000081525081526020016040518060400160405280600581526020017f5368696e6500000000000000000000000000000000000000000000000000000081525081526020016040518060400160405280600581526020017f536869707300000000000000000000000000000000000000000000000000000081525081526020016040518060400160405280600781526020017f536368697070730000000000000000000000000000000000000000000000000081525081526020016040518060400160405280600681526020017f536869707073000000000000000000000000000000000000000000000000000081525081526020016040518060400160405280600781526020017f536869706d616e0000000000000000000000000000000000000000000000000081525081526020016040518060400160405280600981526020017f5363686970706d616e000000000000000000000000000000000000000000000081525081526020016040518060400160405280600681526020017f53696c766572000000000000000000000000000000000000000000000000000081525081526020016040518060400160405280600681526020017f53796c766572000000000000000000000000000000000000000000000000000081525081526020016040518060400160405280600981526020017f53696c7665726d616e000000000000000000000000000000000000000000000081525081526020016040518060400160405280600581526020017f536d616c6c00000000000000000000000000000000000000000000000000000081525081526020016040518060400160405280600681526020017f536d616c6c73000000000000000000000000000000000000000000000000000081525081526020016040518060400160405280600681526020017f537069636572000000000000000000000000000000000000000000000000000081525081526020016040518060400160405280600881526020017f53706963656d616e00000000000000000000000000000000000000000000000081525081526020016040518060400160405280600481526020017f537461720000000000000000000000000000000000000000000000000000000081525081526020016040518060400160405280600581526020017f537461727200000000000000000000000000000000000000000000000000000081525081526020016040518060400160405280600581526020017f5468796d6500000000000000000000000000000000000000000000000000000081525081526020016040518060400160405280600481526020017f576172650000000000000000000000000000000000000000000000000000000081525081526020016040518060400160405280600481526020017f576f6f6c00000000000000000000000000000000000000000000000000000000815250815250601190603b62009e699291906200a219565b5034801562009e7757600080fd5b506040518060400160405280600981526020017f54686520457069637300000000000000000000000000000000000000000000008152506040518060400160405280600481526020017f4550494300000000000000000000000000000000000000000000000000000000815250816000908051906020019062009efc92919062009f1e565b50806001908051906020019062009f1592919062009f1e565b5050506200a3d9565b82805462009f2c906200a374565b90600052602060002090601f01602090048101928262009f50576000855562009f9c565b82601f1062009f6b57805160ff191683800117855562009f9c565b8280016001018555821562009f9c579182015b8281111562009f9b57825182559160200191906001019062009f7e565b5b50905062009fab91906200a2e7565b5090565b8280548282559060005260206000209081019282156200a003579160200282015b828111156200a00257825182908051906020019062009ff192919062009f1e565b509160200191906001019062009fd0565b5b5090506200a01291906200a306565b5090565b8280548282559060005260206000209081019282156200a06a579160200282015b828111156200a0695782518290805190602001906200a05892919062009f1e565b50916020019190600101906200a037565b5b5090506200a07991906200a306565b5090565b8280548282559060005260206000209081019282156200a0d1579160200282015b828111156200a0d05782518290805190602001906200a0bf92919062009f1e565b50916020019190600101906200a09e565b5b5090506200a0e091906200a306565b5090565b8280548282559060005260206000209081019282156200a138579160200282015b828111156200a1375782518290805190602001906200a12692919062009f1e565b50916020019190600101906200a105565b5b5090506200a14791906200a306565b5090565b8280548282559060005260206000209081019282156200a19f579160200282015b828111156200a19e5782518290805190602001906200a18d92919062009f1e565b50916020019190600101906200a16c565b5b5090506200a1ae91906200a306565b5090565b8280548282559060005260206000209081019282156200a206579160200282015b828111156200a2055782518290805190602001906200a1f492919062009f1e565b50916020019190600101906200a1d3565b5b5090506200a21591906200a306565b5090565b8280548282559060005260206000209081019282156200a26d579160200282015b828111156200a26c5782518290805190602001906200a25b92919062009f1e565b50916020019190600101906200a23a565b5b5090506200a27c91906200a306565b5090565b8280548282559060005260206000209081019282156200a2d4579160200282015b828111156200a2d35782518290805190602001906200a2c292919062009f1e565b50916020019190600101906200a2a1565b5b5090506200a2e391906200a306565b5090565b5b808211156200a3025760008160009055506001016200a2e8565b5090565b5b808211156200a32a57600081816200a32091906200a32e565b506001016200a307565b5090565b5080546200a33c906200a374565b6000825580601f106200a35057506200a371565b601f0160209004906000526020600020908101906200a37091906200a2e7565b5b50565b600060028204905060018216806200a38d57607f821691505b602082108114156200a3a4576200a3a36200a3aa565b5b50919050565b7f4e487b7100000000000000000000000000000000000000000000000000000000600052602260045260246000fd5b61454c806200a3e96000396000f3fe608060405234801561001057600080fd5b50600436106101165760003560e01c806370a08231116100a2578063c87b56dd11610071578063c87b56dd146102df578063cdf653061461030f578063de9d132f1461032d578063e985e9c514610337578063f712a73e1461036757610116565b806370a082311461025957806395d89b4114610289578063a22cb465146102a7578063b88d4fde146102c357610116565b806323b872dd116100e957806323b872dd146101b557806342842e0e146101d157806346534cf9146101ed578063496977631461020b5780636352211e1461022957610116565b806301ffc9a71461011b57806306fdde031461014b578063081812fc14610169578063095ea7b314610199575b600080fd5b61013560048036038101906101309190612a84565b610397565b6040516101429190613dc9565b60405180910390f35b610153610479565b6040516101609190613de4565b60405180910390f35b610183600480360381019061017e9190612b55565b61050b565b6040516101909190613d62565b60405180910390f35b6101b360048036038101906101ae9190612a48565b610590565b005b6101cf60048036038101906101ca9190612942565b6106a8565b005b6101eb60048036038101906101e69190612942565b610708565b005b6101f5610728565b6040516102029190614006565b60405180910390f35b610213610732565b6040516102209190614006565b60405180910390f35b610243600480360381019061023e9190612b55565b610743565b6040516102509190613d62565b60405180910390f35b610273600480360381019061026e91906128dd565b6107f5565b6040516102809190614006565b60405180910390f35b6102916108ad565b60405161029e9190613de4565b60405180910390f35b6102c160048036038101906102bc9190612a0c565b61093f565b005b6102dd60048036038101906102d89190612991565b610ac0565b005b6102f960048036038101906102f49190612b55565b610b22565b6040516103069190613de4565b60405180910390f35b610317610c74565b6040516103249190614006565b60405180910390f35b610335610c7a565b005b610351600480360381019061034c9190612906565b61167b565b60405161035e9190613dc9565b60405180910390f35b610381600480360381019061037c9190612ad6565b61170f565b60405161038e9190613de4565b60405180910390f35b60007f80ac58cd000000000000000000000000000000000000000000000000000000007bffffffffffffffffffffffffffffffffffffffffffffffffffffffff1916827bffffffffffffffffffffffffffffffffffffffffffffffffffffffff1916148061046257507f5b5e139f000000000000000000000000000000000000000000000000000000007bffffffffffffffffffffffffffffffffffffffffffffffffffffffff1916827bffffffffffffffffffffffffffffffffffffffffffffffffffffffff1916145b806104725750610471826117a1565b5b9050919050565b60606000805461048890614301565b80601f01602080910402602001604051908101604052809291908181526020018280546104b490614301565b80156105015780601f106104d657610100808354040283529160200191610501565b820191906000526020600020905b8154815290600101906020018083116104e457829003601f168201915b5050505050905090565b60006105168261180b565b610555576040517f08c379a000000000000000000000000000000000000000000000000000000000815260040161054c90613f66565b60405180910390fd5b6004600083815260200190815260200160002060009054906101000a900473ffffffffffffffffffffffffffffffffffffffff169050919050565b600061059b82610743565b90508073ffffffffffffffffffffffffffffffffffffffff168373ffffffffffffffffffffffffffffffffffffffff16141561060c576040517f08c379a000000000000000000000000000000000000000000000000000000000815260040161060390613fc6565b60405180910390fd5b8073ffffffffffffffffffffffffffffffffffffffff1661062b611877565b73ffffffffffffffffffffffffffffffffffffffff16148061065a575061065981610654611877565b61167b565b5b610699576040517f08c379a000000000000000000000000000000000000000000000000000000000815260040161069090613ea6565b60405180910390fd5b6106a3838361187f565b505050565b6106b96106b3611877565b82611938565b6106f8576040517f08c379a00000000000000000000000000000000000000000000000000000000081526004016106ef90613fe6565b60405180910390fd5b610703838383611a16565b505050565b61072383838360405180602001604052806000815250610ac0565b505050565b6000610539905090565b600061073e6007611c72565b905090565b6000806002600084815260200190815260200160002060009054906101000a900473ffffffffffffffffffffffffffffffffffffffff169050600073ffffffffffffffffffffffffffffffffffffffff168173ffffffffffffffffffffffffffffffffffffffff1614156107ec576040517f08c379a00000000000000000000000000000000000000000000000000000000081526004016107e390613ee6565b60405180910390fd5b80915050919050565b60008073ffffffffffffffffffffffffffffffffffffffff168273ffffffffffffffffffffffffffffffffffffffff161415610866576040517f08c379a000000000000000000000000000000000000000000000000000000000815260040161085d90613ec6565b60405180910390fd5b600360008373ffffffffffffffffffffffffffffffffffffffff1673ffffffffffffffffffffffffffffffffffffffff168152602001908152602001600020549050919050565b6060600180546108bc90614301565b80601f01602080910402602001604051908101604052809291908181526020018280546108e890614301565b80156109355780601f1061090a57610100808354040283529160200191610935565b820191906000526020600020905b81548152906001019060200180831161091857829003601f168201915b5050505050905090565b610947611877565b73ffffffffffffffffffffffffffffffffffffffff168273ffffffffffffffffffffffffffffffffffffffff1614156109b5576040517f08c379a00000000000000000000000000000000000000000000000000000000081526004016109ac90613e66565b60405180910390fd5b80600560006109c2611877565b73ffffffffffffffffffffffffffffffffffffffff1673ffffffffffffffffffffffffffffffffffffffff16815260200190815260200160002060008473ffffffffffffffffffffffffffffffffffffffff1673ffffffffffffffffffffffffffffffffffffffff16815260200190815260200160002060006101000a81548160ff0219169083151502179055508173ffffffffffffffffffffffffffffffffffffffff16610a6f611877565b73ffffffffffffffffffffffffffffffffffffffff167f17307eab39ab6107e8899845ad3d59bd9653f200f220920489ca2b5937696c3183604051610ab49190613dc9565b60405180910390a35050565b610ad1610acb611877565b83611938565b610b10576040517f08c379a0000000000000000000000000000000000000000000000000000000008152600401610b0790613fe6565b60405180910390fd5b610b1c84848484611c80565b50505050565b6060610b2d8261180b565b610b6c576040517f08c379a0000000000000000000000000000000000000000000000000000000008152600401610b6390613f46565b60405180910390fd5b6000600660008481526020019081526020016000208054610b8c90614301565b80601f0160208091040260200160405190810160405280929190818152602001828054610bb890614301565b8015610c055780601f10610bda57610100808354040283529160200191610c05565b820191906000526020600020905b815481529060010190602001808311610be857829003601f168201915b505050505090506000610c16611cdc565b9050600081511415610c2c578192505050610c6f565b600082511115610c61578082604051602001610c49929190613a0e565b60405160208183030381529060405292505050610c6f565b610c6a84611cf3565b925050505b919050565b61053981565b6000610c866007611c72565b90506000610c9382611d9a565b9050600060098080549050610cc684604051602001610cb29190613d40565b604051602081830303815290604052611f47565b610cd0919061437c565b81548110610d07577f4e487b7100000000000000000000000000000000000000000000000000000000600052603260045260246000fd5b906000526020600020018054610d1c90614301565b80601f0160208091040260200160405190810160405280929190818152602001828054610d4890614301565b8015610d955780601f10610d6a57610100808354040283529160200191610d95565b820191906000526020600020905b815481529060010190602001808311610d7857829003601f168201915b505050505090506000600a8080549050610dcd85604051602001610db99190613d1e565b604051602081830303815290604052611f47565b610dd7919061437c565b81548110610e0e577f4e487b7100000000000000000000000000000000000000000000000000000000600052603260045260246000fd5b906000526020600020018054610e2390614301565b80601f0160208091040260200160405190810160405280929190818152602001828054610e4f90614301565b8015610e9c5780601f10610e7157610100808354040283529160200191610e9c565b820191906000526020600020905b815481529060010190602001808311610e7f57829003601f168201915b505050505090506000600b8080549050610ed486604051602001610ec09190613cda565b604051602081830303815290604052611f47565b610ede919061437c565b81548110610f15577f4e487b7100000000000000000000000000000000000000000000000000000000600052603260045260246000fd5b906000526020600020018054610f2a90614301565b80601f0160208091040260200160405190810160405280929190818152602001828054610f5690614301565b8015610fa35780601f10610f7857610100808354040283529160200191610fa3565b820191906000526020600020905b815481529060010190602001808311610f8657829003601f168201915b505050505090506000600c8080549050610fdb87604051602001610fc79190613c17565b604051602081830303815290604052611f47565b610fe5919061437c565b8154811061101c577f4e487b7100000000000000000000000000000000000000000000000000000000600052603260045260246000fd5b90600052602060002001805461103190614301565b80601f016020809104026020016040519081016040528092919081815260200182805461105d90614301565b80156110aa5780601f1061107f576101008083540402835291602001916110aa565b820191906000526020600020905b81548152906001019060200180831161108d57829003601f168201915b505050505090506000600d80805490506110e2886040516020016110ce9190613cb8565b604051602081830303815290604052611f47565b6110ec919061437c565b81548110611123577f4e487b7100000000000000000000000000000000000000000000000000000000600052603260045260246000fd5b90600052602060002001805461113890614301565b80601f016020809104026020016040519081016040528092919081815260200182805461116490614301565b80156111b15780601f10611186576101008083540402835291602001916111b1565b820191906000526020600020905b81548152906001019060200180831161119457829003601f168201915b505050505090506000600e80805490506111e9896040516020016111d59190613bf5565b604051602081830303815290604052611f47565b6111f3919061437c565b8154811061122a577f4e487b7100000000000000000000000000000000000000000000000000000000600052603260045260246000fd5b90600052602060002001805461123f90614301565b80601f016020809104026020016040519081016040528092919081815260200182805461126b90614301565b80156112b85780601f1061128d576101008083540402835291602001916112b8565b820191906000526020600020905b81548152906001019060200180831161129b57829003601f168201915b505050505090506000600f80805490506112f08a6040516020016112dc9190613bd3565b604051602081830303815290604052611f47565b6112fa919061437c565b81548110611331577f4e487b7100000000000000000000000000000000000000000000000000000000600052603260045260246000fd5b90600052602060002001805461134690614301565b80601f016020809104026020016040519081016040528092919081815260200182805461137290614301565b80156113bf5780601f10611394576101008083540402835291602001916113bf565b820191906000526020600020905b8154815290600101906020018083116113a257829003601f168201915b505050505090506000601080805490506113f78b6040516020016113e39190613cfc565b604051602081830303815290604052611f47565b611401919061437c565b81548110611438577f4e487b7100000000000000000000000000000000000000000000000000000000600052603260045260246000fd5b90600052602060002001805461144d90614301565b80601f016020809104026020016040519081016040528092919081815260200182805461147990614301565b80156114c65780601f1061149b576101008083540402835291602001916114c6565b820191906000526020600020905b8154815290600101906020018083116114a957829003601f168201915b50505050509050600088888888888888886040516020016114ee989796959493929190613a32565b6040516020818303038152906040529050600060088a8a8a8a8a8a8a8a60405160200161152399989796959493929190613af1565b60405160208183030381529060405290506115726040518060400160405280600b81526020017f46696e616c205356473a0a000000000000000000000000000000000000000000815250611f7a565b61157b81611f7a565b6115b96040518060400160405280600181526020017f0a00000000000000000000000000000000000000000000000000000000000000815250611f7a565b60006115ef83846115c985612013565b6040516020016115db93929190613c39565b604051602081830303815290604052612013565b90506000816040516020016116049190613c96565b604051602081830303815290604052905061161f338f6121d1565b6116298e826121ef565b6116336007612263565b8d7f94d6ff200488cdd10988e4231e6cd137c58358a6095774752fc33277afdcd448336040516116639190613d62565b60405180910390a25050505050505050505050505050565b6000600560008473ffffffffffffffffffffffffffffffffffffffff1673ffffffffffffffffffffffffffffffffffffffff16815260200190815260200160002060008373ffffffffffffffffffffffffffffffffffffffff1673ffffffffffffffffffffffffffffffffffffffff16815260200190815260200160002060009054906101000a900460ff16905092915050565b606060006117458561172086611d9a565b604051602001611731929190613a0e565b604051602081830303815290604052611f47565b9050825181611754919061437c565b905082818151811061178f577f4e487b7100000000000000000000000000000000000000000000000000000000600052603260045260246000fd5b60200260200101519150509392505050565b60007f01ffc9a7000000000000000000000000000000000000000000000000000000007bffffffffffffffffffffffffffffffffffffffffffffffffffffffff1916827bffffffffffffffffffffffffffffffffffffffffffffffffffffffff1916149050919050565b60008073ffffffffffffffffffffffffffffffffffffffff166002600084815260200190815260200160002060009054906101000a900473ffffffffffffffffffffffffffffffffffffffff1673ffffffffffffffffffffffffffffffffffffffff1614159050919050565b600033905090565b816004600083815260200190815260200160002060006101000a81548173ffffffffffffffffffffffffffffffffffffffff021916908373ffffffffffffffffffffffffffffffffffffffff160217905550808273ffffffffffffffffffffffffffffffffffffffff166118f283610743565b73ffffffffffffffffffffffffffffffffffffffff167f8c5be1e5ebec7d5bd14f71427d1e84f3dd0314c0f7b2291e5b200ac8c7c3b92560405160405180910390a45050565b60006119438261180b565b611982576040517f08c379a000000000000000000000000000000000000000000000000000000000815260040161197990613e86565b60405180910390fd5b600061198d83610743565b90508073ffffffffffffffffffffffffffffffffffffffff168473ffffffffffffffffffffffffffffffffffffffff1614806119fc57508373ffffffffffffffffffffffffffffffffffffffff166119e48461050b565b73ffffffffffffffffffffffffffffffffffffffff16145b80611a0d5750611a0c818561167b565b5b91505092915050565b8273ffffffffffffffffffffffffffffffffffffffff16611a3682610743565b73ffffffffffffffffffffffffffffffffffffffff1614611a8c576040517f08c379a0000000000000000000000000000000000000000000000000000000008152600401611a8390613f86565b60405180910390fd5b600073ffffffffffffffffffffffffffffffffffffffff168273ffffffffffffffffffffffffffffffffffffffff161415611afc576040517f08c379a0000000000000000000000000000000000000000000000000000000008152600401611af390613e46565b60405180910390fd5b611b07838383612279565b611b1260008261187f565b6001600360008573ffffffffffffffffffffffffffffffffffffffff1673ffffffffffffffffffffffffffffffffffffffff1681526020019081526020016000206000828254611b629190614217565b925050819055506001600360008473ffffffffffffffffffffffffffffffffffffffff1673ffffffffffffffffffffffffffffffffffffffff1681526020019081526020016000206000828254611bb99190614136565b92505081905550816002600083815260200190815260200160002060006101000a81548173ffffffffffffffffffffffffffffffffffffffff021916908373ffffffffffffffffffffffffffffffffffffffff160217905550808273ffffffffffffffffffffffffffffffffffffffff168473ffffffffffffffffffffffffffffffffffffffff167fddf252ad1be2c89b69c2b068fc378daa952ba7f163c4a11628f55a4df523b3ef60405160405180910390a4505050565b600081600001549050919050565b611c8b848484611a16565b611c978484848461227e565b611cd6576040517f08c379a0000000000000000000000000000000000000000000000000000000008152600401611ccd90613e06565b60405180910390fd5b50505050565b606060405180602001604052806000815250905090565b6060611cfe8261180b565b611d3d576040517f08c379a0000000000000000000000000000000000000000000000000000000008152600401611d3490613fa6565b60405180910390fd5b6000611d47611cdc565b90506000815111611d675760405180602001604052806000815250611d92565b80611d7184611d9a565b604051602001611d82929190613a0e565b6040516020818303038152906040525b915050919050565b60606000821415611de2576040518060400160405280600181526020017f30000000000000000000000000000000000000000000000000000000000000008152509050611f42565b600082905060005b60008214611e14578080611dfd90614333565b915050600a82611e0d919061418c565b9150611dea565b60008167ffffffffffffffff811115611e56577f4e487b7100000000000000000000000000000000000000000000000000000000600052604160045260246000fd5b6040519080825280601f01601f191660200182016040528015611e885781602001600182028036833780820191505090505b5090505b60008514611f3b57600182611ea19190614217565b9150600a85611eb0919061437c565b6030611ebc9190614136565b60f81b818381518110611ef8577f4e487b7100000000000000000000000000000000000000000000000000000000600052603260045260246000fd5b60200101907effffffffffffffffffffffffffffffffffffffffffffffffffffffffffffff1916908160001a905350600a85611f34919061418c565b9450611e8c565b8093505050505b919050565b600081604051602001611f5a91906139f7565b6040516020818303038152906040528051906020012060001c9050919050565b61201081604051602401611f8e9190613de4565b6040516020818303038152906040527f41304fac000000000000000000000000000000000000000000000000000000007bffffffffffffffffffffffffffffffffffffffffffffffffffffffff19166020820180517bffffffffffffffffffffffffffffffffffffffffffffffffffffffff8381831617835250505050612415565b50565b6060600082519050600081141561203c57604051806020016040528060008152509150506121cc565b6000600360028361204d9190614136565b612057919061418c565b600461206391906141bd565b905060006020826120749190614136565b67ffffffffffffffff8111156120b3577f4e487b7100000000000000000000000000000000000000000000000000000000600052604160045260246000fd5b6040519080825280601f01601f1916602001820160405280156120e55781602001600182028036833780820191505090505b50905060006040518060600160405280604081526020016144d7604091399050600181016020830160005b868110156121895760038101905062ffffff818a015116603f8160121c168401518060081b905060ff603f83600c1c1686015116810190508060081b905060ff603f8360061c1686015116810190508060081b905060ff603f831686015116810190508060e01b90508084526004840193505050612110565b5060038606600181146121a357600281146121b3576121be565b613d3d60f01b60028303526121be565b603d60f81b60018303525b508484525050819450505050505b919050565b6121eb82826040518060200160405280600081525061243e565b5050565b6121f88261180b565b612237576040517f08c379a000000000000000000000000000000000000000000000000000000000815260040161222e90613f06565b60405180910390fd5b8060066000848152602001908152602001600020908051906020019061225e92919061267a565b505050565b6001816000016000828254019250508190555050565b505050565b600061229f8473ffffffffffffffffffffffffffffffffffffffff16612499565b15612408578373ffffffffffffffffffffffffffffffffffffffff1663150b7a026122c8611877565b8786866040518563ffffffff1660e01b81526004016122ea9493929190613d7d565b602060405180830381600087803b15801561230457600080fd5b505af192505050801561233557506040513d601f19601f820116820180604052508101906123329190612aad565b60015b6123b8573d8060008114612365576040519150601f19603f3d011682016040523d82523d6000602084013e61236a565b606091505b506000815114156123b0576040517f08c379a00000000000000000000000000000000000000000000000000000000081526004016123a790613e06565b60405180910390fd5b805181602001fd5b63150b7a0260e01b7bffffffffffffffffffffffffffffffffffffffffffffffffffffffff1916817bffffffffffffffffffffffffffffffffffffffffffffffffffffffff19161491505061240d565b600190505b949350505050565b60008151905060006a636f6e736f6c652e6c6f679050602083016000808483855afa5050505050565b61244883836124ac565b612455600084848461227e565b612494576040517f08c379a000000000000000000000000000000000000000000000000000000000815260040161248b90613e06565b60405180910390fd5b505050565b600080823b905060008111915050919050565b600073ffffffffffffffffffffffffffffffffffffffff168273ffffffffffffffffffffffffffffffffffffffff16141561251c576040517f08c379a000000000000000000000000000000000000000000000000000000000815260040161251390613f26565b60405180910390fd5b6125258161180b565b15612565576040517f08c379a000000000000000000000000000000000000000000000000000000000815260040161255c90613e26565b60405180910390fd5b61257160008383612279565b6001600360008473ffffffffffffffffffffffffffffffffffffffff1673ffffffffffffffffffffffffffffffffffffffff16815260200190815260200160002060008282546125c19190614136565b92505081905550816002600083815260200190815260200160002060006101000a81548173ffffffffffffffffffffffffffffffffffffffff021916908373ffffffffffffffffffffffffffffffffffffffff160217905550808273ffffffffffffffffffffffffffffffffffffffff16600073ffffffffffffffffffffffffffffffffffffffff167fddf252ad1be2c89b69c2b068fc378daa952ba7f163c4a11628f55a4df523b3ef60405160405180910390a45050565b82805461268690614301565b90600052602060002090601f0160209004810192826126a857600085556126ef565b82601f106126c157805160ff19168380011785556126ef565b828001600101855582156126ef579182015b828111156126ee5782518255916020019190600101906126d3565b5b5090506126fc9190612700565b5090565b5b80821115612719576000816000905550600101612701565b5090565b600061273061272b84614052565b614021565b9050808382526020820190508260005b858110156127705781358501612756888261289e565b845260208401935060208301925050600181019050612740565b5050509392505050565b600061278d6127888461407e565b614021565b9050828152602081018484840111156127a557600080fd5b6127b08482856142bf565b509392505050565b60006127cb6127c6846140ae565b614021565b9050828152602081018484840111156127e357600080fd5b6127ee8482856142bf565b509392505050565b6000813590506128058161447a565b92915050565b600082601f83011261281c57600080fd5b813561282c84826020860161271d565b91505092915050565b60008135905061284481614491565b92915050565b600081359050612859816144a8565b92915050565b60008151905061286e816144a8565b92915050565b600082601f83011261288557600080fd5b813561289584826020860161277a565b91505092915050565b600082601f8301126128af57600080fd5b81356128bf8482602086016127b8565b91505092915050565b6000813590506128d7816144bf565b92915050565b6000602082840312156128ef57600080fd5b60006128fd848285016127f6565b91505092915050565b6000806040838503121561291957600080fd5b6000612927858286016127f6565b9250506020612938858286016127f6565b9150509250929050565b60008060006060848603121561295757600080fd5b6000612965868287016127f6565b9350506020612976868287016127f6565b9250506040612987868287016128c8565b9150509250925092565b600080600080608085870312156129a757600080fd5b60006129b5878288016127f6565b94505060206129c6878288016127f6565b93505060406129d7878288016128c8565b925050606085013567ffffffffffffffff8111156129f457600080fd5b612a0087828801612874565b91505092959194509250565b60008060408385031215612a1f57600080fd5b6000612a2d858286016127f6565b9250506020612a3e85828601612835565b9150509250929050565b60008060408385031215612a5b57600080fd5b6000612a69858286016127f6565b9250506020612a7a858286016128c8565b9150509250929050565b600060208284031215612a9657600080fd5b6000612aa48482850161284a565b91505092915050565b600060208284031215612abf57600080fd5b6000612acd8482850161285f565b91505092915050565b600080600060608486031215612aeb57600080fd5b600084013567ffffffffffffffff811115612b0557600080fd5b612b118682870161289e565b9350506020612b22868287016128c8565b925050604084013567ffffffffffffffff811115612b3f57600080fd5b612b4b8682870161280b565b9150509250925092565b600060208284031215612b6757600080fd5b6000612b75848285016128c8565b91505092915050565b612b878161424b565b82525050565b612b968161425d565b82525050565b6000612ba7826140f3565b612bb18185614109565b9350612bc18185602086016142ce565b612bca81614469565b840191505092915050565b6000612be0826140fe565b612bea818561411a565b9350612bfa8185602086016142ce565b612c0381614469565b840191505092915050565b6000612c19826140fe565b612c23818561412b565b9350612c338185602086016142ce565b80840191505092915050565b60008154612c4c81614301565b612c56818661412b565b94506001821660008114612c715760018114612c8257612cb5565b60ff19831686528186019350612cb5565b612c8b856140de565b60005b83811015612cad57815481890152600182019150602081019050612c8e565b838801955050505b50505092915050565b6000612ccb60368361412b565b91507f3c2f746578743e3c7465787420636c6173733d276261736527206d617267696e60008301527f3d273270782720783d2734252720793d27333225273e000000000000000000006020830152603682019050919050565b6000612d3160368361412b565b91507f3c2f746578743e3c7465787420636c6173733d276261736527206d617267696e60008301527f3d273270782720783d2734252720793d27343025273e000000000000000000006020830152603682019050919050565b6000612d97602e8361412b565b91507f3c7465787420636c6173733d276261736527206d617267696e3d27327078272060008301527f783d2734252720793d273825273e0000000000000000000000000000000000006020830152602e82019050919050565b6000612dfd60138361412b565b91507f222c20226465736372697074696f6e223a2022000000000000000000000000006000830152601382019050919050565b6000612e3d60328361411a565b91507f4552433732313a207472616e7366657220746f206e6f6e20455243373231526560008301527f63656976657220696d706c656d656e74657200000000000000000000000000006020830152604082019050919050565b6000612ea360088361412b565b91507f43524146544552530000000000000000000000000000000000000000000000006000830152600882019050919050565b6000612ee3601c8361411a565b91507f4552433732313a20746f6b656e20616c7265616479206d696e746564000000006000830152602082019050919050565b6000612f2360098361412b565b91507f49534c414e4445525300000000000000000000000000000000000000000000006000830152600982019050919050565b6000612f6360468361412b565b91507f2045646974696f6e206f662044696e6f736175727320616e642043617665732260008301527f2c2022696d616765223a2022646174613a696d6167652f7376672b786d6c3b6260208301527f61736536342c00000000000000000000000000000000000000000000000000006040830152604682019050919050565b6000612fef60248361411a565b91507f4552433732313a207472616e7366657220746f20746865207a65726f2061646460008301527f72657373000000000000000000000000000000000000000000000000000000006020830152604082019050919050565b600061305560198361411a565b91507f4552433732313a20617070726f766520746f2063616c6c6572000000000000006000830152602082019050919050565b6000613095602c8361411a565b91507f4552433732313a206f70657261746f7220717565727920666f72206e6f6e657860008301527f697374656e7420746f6b656e00000000000000000000000000000000000000006020830152604082019050919050565b60006130fb600d8361412b565b91507f3c2f746578743e3c2f7376673e000000000000000000000000000000000000006000830152600d82019050919050565b600061313b60018361412b565b91507f20000000000000000000000000000000000000000000000000000000000000006000830152600182019050919050565b600061317b60388361411a565b91507f4552433732313a20617070726f76652063616c6c6572206973206e6f74206f7760008301527f6e6572206e6f7220617070726f76656420666f7220616c6c00000000000000006020830152604082019050919050565b60006131e160368361412b565b91507f3c2f746578743e3c7465787420636c6173733d276261736527206d617267696e60008301527f3d273270782720783d2734252720793d27313625273e000000000000000000006020830152603682019050919050565b600061324760368361412b565b91507f3c2f746578743e3c7465787420636c6173733d276261736527206d617267696e60008301527f3d273270782720783d2734252720793d27343825273e000000000000000000006020830152603682019050919050565b60006132ad60368361412b565b91507f3c2f746578743e3c7465787420636c6173733d276261736527206d617267696e60008301527f3d273270782720783d2734252720793d27363425273e000000000000000000006020830152603682019050919050565b6000613313602a8361411a565b91507f4552433732313a2062616c616e636520717565727920666f7220746865207a6560008301527f726f2061646472657373000000000000000000000000000000000000000000006020830152604082019050919050565b600061337960298361411a565b91507f4552433732313a206f776e657220717565727920666f72206e6f6e657869737460008301527f656e7420746f6b656e00000000000000000000000000000000000000000000006020830152604082019050919050565b60006133df602e8361411a565b91507f45524337323155524953746f726167653a2055524920736574206f66206e6f6e60008301527f6578697374656e7420746f6b656e0000000000000000000000000000000000006020830152604082019050919050565b600061344560028361412b565b91507f227d0000000000000000000000000000000000000000000000000000000000006000830152600282019050919050565b600061348560208361411a565b91507f4552433732313a206d696e7420746f20746865207a65726f20616464726573736000830152602082019050919050565b60006134c5600c8361412b565b91507f46524f5a454e5f4c414e445300000000000000000000000000000000000000006000830152600c82019050919050565b600061350560318361411a565b91507f45524337323155524953746f726167653a2055524920717565727920666f722060008301527f6e6f6e6578697374656e7420746f6b656e0000000000000000000000000000006020830152604082019050919050565b600061356b602c8361411a565b91507f4552433732313a20617070726f76656420717565727920666f72206e6f6e657860008301527f697374656e7420746f6b656e00000000000000000000000000000000000000006020830152604082019050919050565b60006135d160298361411a565b91507f4552433732313a207472616e73666572206f6620746f6b656e2074686174206960008301527f73206e6f74206f776e00000000000000000000000000000000000000000000006020830152604082019050919050565b600061363760368361412b565b91507f3c2f746578743e3c7465787420636c6173733d276261736527206d617267696e60008301527f3d273270782720783d2734252720793d27323425273e000000000000000000006020830152603682019050919050565b600061369d602f8361411a565b91507f4552433732314d657461646174613a2055524920717565727920666f72206e6f60008301527f6e6578697374656e7420746f6b656e00000000000000000000000000000000006020830152604082019050919050565b6000613703600a8361412b565b91507f7b226e616d65223a2022000000000000000000000000000000000000000000006000830152600a82019050919050565b600061374360368361412b565b91507f3c2f746578743e3c7465787420636c6173733d276261736527206d617267696e60008301527f3d273270782720783d2734252720793d27353625273e000000000000000000006020830152603682019050919050565b60006137a960218361411a565b91507f4552433732313a20617070726f76616c20746f2063757272656e74206f776e6560008301527f72000000000000000000000000000000000000000000000000000000000000006020830152604082019050919050565b600061380f601d8361412b565b91507f646174613a6170706c69636174696f6e2f6a736f6e3b6261736536342c0000006000830152601d82019050919050565b600061384f60318361411a565b91507f4552433732313a207472616e736665722063616c6c6572206973206e6f74206f60008301527f776e6572206e6f7220617070726f7665640000000000000000000000000000006020830152604082019050919050565b60006138b5600e8361412b565b91507f4741524d454e545f4d414b4552530000000000000000000000000000000000006000830152600e82019050919050565b60006138f5600b8361412b565b91507f464f4f445f4d414b4552530000000000000000000000000000000000000000006000830152600b82019050919050565b6000613935600d8361412b565b91507f4d4f554e5441494e5f464f4c4b000000000000000000000000000000000000006000830152600d82019050919050565b600061397560098361412b565b91507f4641524d5f464f4c4b00000000000000000000000000000000000000000000006000830152600982019050919050565b60006139b5600b8361412b565b91507f4445534552545f464f4c4b0000000000000000000000000000000000000000006000830152600b82019050919050565b6139f1816142b5565b82525050565b6000613a038284612c0e565b915081905092915050565b6000613a1a8285612c0e565b9150613a268284612c0e565b91508190509392505050565b6000613a3e828b612c0e565b9150613a498261312e565b9150613a55828a612c0e565b9150613a608261312e565b9150613a6c8289612c0e565b9150613a778261312e565b9150613a838288612c0e565b9150613a8e8261312e565b9150613a9a8287612c0e565b9150613aa58261312e565b9150613ab18286612c0e565b9150613abc8261312e565b9150613ac88285612c0e565b9150613ad38261312e565b9150613adf8284612c0e565b91508190509998505050505050505050565b6000613afd828c612c3f565b9150613b0882612d8a565b9150613b14828b612c0e565b9150613b1f826131d4565b9150613b2b828a612c0e565b9150613b368261362a565b9150613b428289612c0e565b9150613b4d82612cbe565b9150613b598288612c0e565b9150613b6482612d24565b9150613b708287612c0e565b9150613b7b8261323a565b9150613b878286612c0e565b9150613b9282613736565b9150613b9e8285612c0e565b9150613ba9826132a0565b9150613bb58284612c0e565b9150613bc0826130ee565b91508190509a9950505050505050505050565b6000613bde82612e96565b9150613bea8284612c0e565b915081905092915050565b6000613c0082612f16565b9150613c0c8284612c0e565b915081905092915050565b6000613c22826134b8565b9150613c2e8284612c0e565b915081905092915050565b6000613c44826136f6565b9150613c508286612c0e565b9150613c5b82612df0565b9150613c678285612c0e565b9150613c7282612f56565b9150613c7e8284612c0e565b9150613c8982613438565b9150819050949350505050565b6000613ca182613802565b9150613cad8284612c0e565b915081905092915050565b6000613cc3826138a8565b9150613ccf8284612c0e565b915081905092915050565b6000613ce5826138e8565b9150613cf18284612c0e565b915081905092915050565b6000613d0782613928565b9150613d138284612c0e565b915081905092915050565b6000613d2982613968565b9150613d358284612c0e565b915081905092915050565b6000613d4b826139a8565b9150613d578284612c0e565b915081905092915050565b6000602082019050613d776000830184612b7e565b92915050565b6000608082019050613d926000830187612b7e565b613d9f6020830186612b7e565b613dac60408301856139e8565b8181036060830152613dbe8184612b9c565b905095945050505050565b6000602082019050613dde6000830184612b8d565b92915050565b60006020820190508181036000830152613dfe8184612bd5565b905092915050565b60006020820190508181036000830152613e1f81612e30565b9050919050565b60006020820190508181036000830152613e3f81612ed6565b9050919050565b60006020820190508181036000830152613e5f81612fe2565b9050919050565b60006020820190508181036000830152613e7f81613048565b9050919050565b60006020820190508181036000830152613e9f81613088565b9050919050565b60006020820190508181036000830152613ebf8161316e565b9050919050565b60006020820190508181036000830152613edf81613306565b9050919050565b60006020820190508181036000830152613eff8161336c565b9050919050565b60006020820190508181036000830152613f1f816133d2565b9050919050565b60006020820190508181036000830152613f3f81613478565b9050919050565b60006020820190508181036000830152613f5f816134f8565b9050919050565b60006020820190508181036000830152613f7f8161355e565b9050919050565b60006020820190508181036000830152613f9f816135c4565b9050919050565b60006020820190508181036000830152613fbf81613690565b9050919050565b60006020820190508181036000830152613fdf8161379c565b9050919050565b60006020820190508181036000830152613fff81613842565b9050919050565b600060208201905061401b60008301846139e8565b92915050565b6000604051905081810181811067ffffffffffffffff821117156140485761404761443a565b5b8060405250919050565b600067ffffffffffffffff82111561406d5761406c61443a565b5b602082029050602081019050919050565b600067ffffffffffffffff8211156140995761409861443a565b5b601f19601f8301169050602081019050919050565b600067ffffffffffffffff8211156140c9576140c861443a565b5b601f19601f8301169050602081019050919050565b60008190508160005260206000209050919050565b600081519050919050565b600081519050919050565b600082825260208201905092915050565b600082825260208201905092915050565b600081905092915050565b6000614141826142b5565b915061414c836142b5565b9250827fffffffffffffffffffffffffffffffffffffffffffffffffffffffffffffffff03821115614181576141806143ad565b5b828201905092915050565b6000614197826142b5565b91506141a2836142b5565b9250826141b2576141b16143dc565b5b828204905092915050565b60006141c8826142b5565b91506141d3836142b5565b9250817fffffffffffffffffffffffffffffffffffffffffffffffffffffffffffffffff048311821515161561420c5761420b6143ad565b5b828202905092915050565b6000614222826142b5565b915061422d836142b5565b9250828210156142405761423f6143ad565b5b828203905092915050565b600061425682614295565b9050919050565b60008115159050919050565b60007fffffffff0000000000000000000000000000000000000000000000000000000082169050919050565b600073ffffffffffffffffffffffffffffffffffffffff82169050919050565b6000819050919050565b82818337600083830152505050565b60005b838110156142ec5780820151818401526020810190506142d1565b838111156142fb576000848401525b50505050565b6000600282049050600182168061431957607f821691505b6020821081141561432d5761432c61440b565b5b50919050565b600061433e826142b5565b91507fffffffffffffffffffffffffffffffffffffffffffffffffffffffffffffffff821415614371576143706143ad565b5b600182019050919050565b6000614387826142b5565b9150614392836142b5565b9250826143a2576143a16143dc565b5b828206905092915050565b7f4e487b7100000000000000000000000000000000000000000000000000000000600052601160045260246000fd5b7f4e487b7100000000000000000000000000000000000000000000000000000000600052601260045260246000fd5b7f4e487b7100000000000000000000000000000000000000000000000000000000600052602260045260246000fd5b7f4e487b7100000000000000000000000000000000000000000000000000000000600052604160045260246000fd5b6000601f19601f8301169050919050565b6144838161424b565b811461448e57600080fd5b50565b61449a8161425d565b81146144a557600080fd5b50565b6144b181614269565b81146144bc57600080fd5b50565b6144c8816142b5565b81146144d357600080fd5b5056fe4142434445464748494a4b4c4d4e4f505152535455565758595a6162636465666768696a6b6c6d6e6f707172737475767778797a303132333435363738392b2fa264697066735822122037df1bf96fa62c0186215c0ca3bb015cd5ba17ff9d20607ccc860a01289c20da64736f6c634300080000333c73766720786d6c6e733d27687474703a2f2f7777772e77332e6f72672f323030302f73766727207072657365727665417370656374526174696f3d27784d696e594d696e206d656574272076696577426f783d273020302033353020333530273e3c7374796c653e2e62617365207b2066696c6c3a2077686974653b20666f6e742d66616d696c793a2073657269663b20666f6e742d73697a653a20323470783b207d3c2f7374796c653e3c726563742077696474683d273130302527206865696768743d2731303025272066696c6c3d27626c61636b27202f3e",
  "linkReferences": {},
  "deployedLinkReferences": {}
}